{
  "_format": "hh-sol-artifact-1",
  "contractName": "Trial",
  "sourceName": "contracts/Trial.sol",
  "abi": [
    {
      "inputs": [
        {
          "internalType": "address",
          "name": "_automate",
          "type": "address"
        },
        {
          "internalType": "address",
          "name": "_fundsOwner",
          "type": "address"
        }
      ],
      "stateMutability": "nonpayable",
      "type": "constructor"
    },
    {
      "anonymous": false,
      "inputs": [
        {
          "indexed": false,
          "internalType": "bytes32",
          "name": "taskId",
          "type": "bytes32"
        }
      ],
      "name": "CounterTaskCreated",
      "type": "event"
    },
    {
      "inputs": [],
      "name": "automate",
      "outputs": [
        {
          "internalType": "contract IAutomate",
          "name": "",
          "type": "address"
        }
      ],
      "stateMutability": "view",
      "type": "function"
    },
    {
      "inputs": [],
      "name": "checker",
      "outputs": [
        {
          "internalType": "bool",
          "name": "canExec",
          "type": "bool"
        },
        {
          "internalType": "bytes",
          "name": "execPayload",
          "type": "bytes"
        }
      ],
      "stateMutability": "view",
      "type": "function"
    },
    {
      "inputs": [],
      "name": "checker1",
      "outputs": [
        {
          "internalType": "bool",
          "name": "canExec",
          "type": "bool"
        },
        {
          "internalType": "bytes",
          "name": "execPayload",
          "type": "bytes"
        }
      ],
      "stateMutability": "view",
      "type": "function"
    },
    {
      "inputs": [],
      "name": "checker2",
      "outputs": [
        {
          "internalType": "bool",
          "name": "canExec",
          "type": "bool"
        },
        {
          "internalType": "bytes",
          "name": "execPayload",
          "type": "bytes"
        }
      ],
      "stateMutability": "view",
      "type": "function"
    },
    {
      "inputs": [
        {
          "internalType": "address",
          "name": "_sender",
          "type": "address"
        },
        {
          "internalType": "uint256",
          "name": "j",
          "type": "uint256"
        }
      ],
      "name": "createFlowIntoContract",
      "outputs": [],
      "stateMutability": "nonpayable",
      "type": "function"
    },
    {
      "inputs": [],
      "name": "createTask",
      "outputs": [],
      "stateMutability": "nonpayable",
      "type": "function"
    },
    {
      "inputs": [],
      "name": "createTask1",
      "outputs": [],
      "stateMutability": "nonpayable",
      "type": "function"
    },
    {
      "inputs": [],
      "name": "createTask2",
      "outputs": [],
      "stateMutability": "nonpayable",
      "type": "function"
    },
    {
      "inputs": [],
      "name": "dedicatedMsgSender",
      "outputs": [
        {
          "internalType": "address",
          "name": "",
          "type": "address"
        }
      ],
      "stateMutability": "view",
      "type": "function"
    },
    {
      "inputs": [
        {
          "internalType": "address",
          "name": "_sender",
          "type": "address"
        },
        {
          "internalType": "uint256",
          "name": "j",
          "type": "uint256"
        }
      ],
      "name": "deleteFlowIntoContract",
      "outputs": [],
      "stateMutability": "nonpayable",
      "type": "function"
    },
    {
      "inputs": [],
      "name": "depositForCounter",
      "outputs": [],
      "stateMutability": "payable",
      "type": "function"
    },
    {
      "inputs": [
        {
          "internalType": "uint256",
          "name": "i",
          "type": "uint256"
        },
        {
          "components": [
            {
              "internalType": "address",
              "name": "user",
              "type": "address"
            },
            {
              "internalType": "address",
              "name": "receiver",
              "type": "address"
            },
            {
              "internalType": "contract ISuperToken",
              "name": "token",
              "type": "address"
            },
            {
              "internalType": "uint256",
              "name": "startTime",
              "type": "uint256"
            },
            {
              "internalType": "uint256",
              "name": "endTime",
              "type": "uint256"
            },
            {
              "internalType": "int96",
              "name": "startFlowRate",
              "type": "int96"
            },
            {
              "internalType": "int96",
              "name": "flowRate",
              "type": "int96"
            },
            {
              "internalType": "uint256[]",
              "name": "updateTime",
              "type": "uint256[]"
            },
            {
              "internalType": "int96[]",
              "name": "updateFlowRate",
              "type": "int96[]"
            },
            {
              "internalType": "bool[]",
              "name": "isFlowUpdated",
              "type": "bool[]"
            },
            {
              "internalType": "bool",
              "name": "isStarted",
              "type": "bool"
            },
            {
              "internalType": "bool",
              "name": "isUpadetd",
              "type": "bool"
            },
            {
              "internalType": "bool",
              "name": "isDeleted",
              "type": "bool"
            },
            {
              "internalType": "bool",
              "name": "isScheduled",
              "type": "bool"
            }
          ],
          "internalType": "struct Trial.StreamDetails",
          "name": "data",
          "type": "tuple"
        }
      ],
      "name": "editUserStreams",
      "outputs": [],
      "stateMutability": "nonpayable",
      "type": "function"
    },
    {
      "inputs": [],
      "name": "fundsOwner",
      "outputs": [
        {
          "internalType": "address",
          "name": "",
          "type": "address"
        }
      ],
      "stateMutability": "view",
      "type": "function"
    },
    {
      "inputs": [
        {
          "internalType": "address",
          "name": "_user",
          "type": "address"
        }
      ],
      "name": "getAllUserStreams",
      "outputs": [
        {
          "components": [
            {
              "internalType": "address",
              "name": "user",
              "type": "address"
            },
            {
              "internalType": "address",
              "name": "receiver",
              "type": "address"
            },
            {
              "internalType": "contract ISuperToken",
              "name": "token",
              "type": "address"
            },
            {
              "internalType": "uint256",
              "name": "startTime",
              "type": "uint256"
            },
            {
              "internalType": "uint256",
              "name": "endTime",
              "type": "uint256"
            },
            {
              "internalType": "int96",
              "name": "startFlowRate",
              "type": "int96"
            },
            {
              "internalType": "int96",
              "name": "flowRate",
              "type": "int96"
            },
            {
              "internalType": "uint256[]",
              "name": "updateTime",
              "type": "uint256[]"
            },
            {
              "internalType": "int96[]",
              "name": "updateFlowRate",
              "type": "int96[]"
            },
            {
              "internalType": "bool[]",
              "name": "isFlowUpdated",
              "type": "bool[]"
            },
            {
              "internalType": "bool",
              "name": "isStarted",
              "type": "bool"
            },
            {
              "internalType": "bool",
              "name": "isUpadetd",
              "type": "bool"
            },
            {
              "internalType": "bool",
              "name": "isDeleted",
              "type": "bool"
            },
            {
              "internalType": "bool",
              "name": "isScheduled",
              "type": "bool"
            }
          ],
          "internalType": "struct Trial.StreamDetails[]",
          "name": "",
          "type": "tuple[]"
        }
      ],
      "stateMutability": "view",
      "type": "function"
    },
    {
      "inputs": [
        {
          "internalType": "address",
          "name": "",
          "type": "address"
        }
      ],
      "name": "isUserAdded",
      "outputs": [
        {
          "internalType": "bool",
          "name": "",
          "type": "bool"
        }
      ],
      "stateMutability": "view",
      "type": "function"
    },
    {
      "inputs": [
        {
          "components": [
            {
              "internalType": "address",
              "name": "user",
              "type": "address"
            },
            {
              "internalType": "address",
              "name": "receiver",
              "type": "address"
            },
            {
              "internalType": "contract ISuperToken",
              "name": "token",
              "type": "address"
            },
            {
              "internalType": "uint256",
              "name": "startTime",
              "type": "uint256"
            },
            {
              "internalType": "uint256",
              "name": "endTime",
              "type": "uint256"
            },
            {
              "internalType": "int96",
              "name": "startFlowRate",
              "type": "int96"
            },
            {
              "internalType": "int96",
              "name": "flowRate",
              "type": "int96"
            },
            {
              "internalType": "uint256[]",
              "name": "updateTime",
              "type": "uint256[]"
            },
            {
              "internalType": "int96[]",
              "name": "updateFlowRate",
              "type": "int96[]"
            },
            {
              "internalType": "bool[]",
              "name": "isFlowUpdated",
              "type": "bool[]"
            },
            {
              "internalType": "bool",
              "name": "isStarted",
              "type": "bool"
            },
            {
              "internalType": "bool",
              "name": "isUpadetd",
              "type": "bool"
            },
            {
              "internalType": "bool",
              "name": "isDeleted",
              "type": "bool"
            },
            {
              "internalType": "bool",
              "name": "isScheduled",
              "type": "bool"
            }
          ],
          "internalType": "struct Trial.StreamDetails",
          "name": "data",
          "type": "tuple"
        }
      ],
      "name": "scheduleStream",
      "outputs": [],
      "stateMutability": "nonpayable",
      "type": "function"
    },
    {
      "inputs": [],
      "name": "taskId",
      "outputs": [
        {
          "internalType": "bytes32",
          "name": "",
          "type": "bytes32"
        }
      ],
      "stateMutability": "view",
      "type": "function"
    },
    {
      "inputs": [],
      "name": "taskId1",
      "outputs": [
        {
          "internalType": "bytes32",
          "name": "",
          "type": "bytes32"
        }
      ],
      "stateMutability": "view",
      "type": "function"
    },
    {
      "inputs": [],
      "name": "taskId2",
      "outputs": [
        {
          "internalType": "bytes32",
          "name": "",
          "type": "bytes32"
        }
      ],
      "stateMutability": "view",
      "type": "function"
    },
    {
      "inputs": [],
      "name": "taskTreasury",
      "outputs": [
        {
          "internalType": "contract ITaskTreasuryUpgradable",
          "name": "",
          "type": "address"
        }
      ],
      "stateMutability": "view",
      "type": "function"
    },
    {
      "inputs": [
        {
          "internalType": "uint256",
          "name": "j",
          "type": "uint256"
        }
      ],
      "name": "unscheduledDelete",
      "outputs": [],
      "stateMutability": "nonpayable",
      "type": "function"
    },
    {
      "inputs": [
        {
          "internalType": "int96",
          "name": "_flow",
          "type": "int96"
        },
        {
          "internalType": "uint256",
          "name": "j",
          "type": "uint256"
        }
      ],
      "name": "unscheduledUpdate",
      "outputs": [],
      "stateMutability": "nonpayable",
      "type": "function"
    },
    {
      "inputs": [
        {
          "internalType": "address",
          "name": "_sender",
          "type": "address"
        },
        {
          "internalType": "uint256",
          "name": "j",
          "type": "uint256"
        },
        {
          "internalType": "uint256",
          "name": "k",
          "type": "uint256"
        }
      ],
      "name": "updateFlowIntoContract",
      "outputs": [],
      "stateMutability": "nonpayable",
      "type": "function"
    },
    {
      "inputs": [
        {
          "internalType": "address",
          "name": "",
          "type": "address"
        },
        {
          "internalType": "uint256",
          "name": "",
          "type": "uint256"
        }
      ],
      "name": "userStreams",
      "outputs": [
        {
          "internalType": "address",
          "name": "user",
          "type": "address"
        },
        {
          "internalType": "address",
          "name": "receiver",
          "type": "address"
        },
        {
          "internalType": "contract ISuperToken",
          "name": "token",
          "type": "address"
        },
        {
          "internalType": "uint256",
          "name": "startTime",
          "type": "uint256"
        },
        {
          "internalType": "uint256",
          "name": "endTime",
          "type": "uint256"
        },
        {
          "internalType": "int96",
          "name": "startFlowRate",
          "type": "int96"
        },
        {
          "internalType": "int96",
          "name": "flowRate",
          "type": "int96"
        },
        {
          "internalType": "bool",
          "name": "isStarted",
          "type": "bool"
        },
        {
          "internalType": "bool",
          "name": "isUpadetd",
          "type": "bool"
        },
        {
          "internalType": "bool",
          "name": "isDeleted",
          "type": "bool"
        },
        {
          "internalType": "bool",
          "name": "isScheduled",
          "type": "bool"
        }
      ],
      "stateMutability": "view",
      "type": "function"
    },
    {
      "inputs": [
        {
          "internalType": "uint256",
          "name": "_amount",
          "type": "uint256"
        },
        {
          "internalType": "address",
          "name": "_token",
          "type": "address"
        }
      ],
      "name": "withdrawFunds",
      "outputs": [],
      "stateMutability": "nonpayable",
      "type": "function"
    }
  ],
  "bytecode": "0x6101206040523480156200001257600080fd5b50604051620063fd380380620063fd83398181016040528101906200003891906200032e565b818181308173ffffffffffffffffffffffffffffffffffffffff1660808173ffffffffffffffffffffffffffffffffffffffff16815250508173ffffffffffffffffffffffffffffffffffffffff1663573ea5756040518163ffffffff1660e01b8152600401602060405180830381865afa158015620000bc573d6000803e3d6000fd5b505050506040513d601f19601f82011682018060405250810190620000e29190620003ba565b73ffffffffffffffffffffffffffffffffffffffff1660c08173ffffffffffffffffffffffffffffffffffffffff168152505073c815db16d4be6ddf2685c201937905abf338f5d773ffffffffffffffffffffffffffffffffffffffff1663ded89a7c826040518263ffffffff1660e01b8152600401620001649190620003fd565b6040805180830381865afa15801562000181573d6000803e3d6000fd5b505050506040513d601f19601f82011682018060405250810190620001a7919062000457565b508073ffffffffffffffffffffffffffffffffffffffff1660a09073ffffffffffffffffffffffffffffffffffffffff168152505050508073ffffffffffffffffffffffffffffffffffffffff1660e08173ffffffffffffffffffffffffffffffffffffffff168152505060805173ffffffffffffffffffffffffffffffffffffffff1663e60a32136040518163ffffffff1660e01b8152600401602060405180830381865afa15801562000260573d6000803e3d6000fd5b505050506040513d601f19601f82011682018060405250810190620002869190620004e3565b73ffffffffffffffffffffffffffffffffffffffff166101008173ffffffffffffffffffffffffffffffffffffffff16815250505050505062000515565b600080fd5b600073ffffffffffffffffffffffffffffffffffffffff82169050919050565b6000620002f682620002c9565b9050919050565b6200030881620002e9565b81146200031457600080fd5b50565b6000815190506200032881620002fd565b92915050565b60008060408385031215620003485762000347620002c4565b5b6000620003588582860162000317565b92505060206200036b8582860162000317565b9150509250929050565b60006200038282620002c9565b9050919050565b620003948162000375565b8114620003a057600080fd5b50565b600081519050620003b48162000389565b92915050565b600060208284031215620003d357620003d2620002c4565b5b6000620003e384828501620003a3565b91505092915050565b620003f781620002e9565b82525050565b6000602082019050620004146000830184620003ec565b92915050565b60008115159050919050565b62000431816200041a565b81146200043d57600080fd5b50565b600081519050620004518162000426565b92915050565b60008060408385031215620004715762000470620002c4565b5b6000620004818582860162000317565b9250506020620004948582860162000440565b9150509250929050565b6000620004ab82620002e9565b9050919050565b620004bd816200049e565b8114620004c957600080fd5b50565b600081519050620004dd81620004b2565b92915050565b600060208284031215620004fc57620004fb620002c4565b5b60006200050c84828501620004cc565b91505092915050565b60805160a05160c05160e05161010051615e6e6200058f60003960008181612941015281816137d20152613e6001526000818161164f015281816128b3015261297d015260005050600081816109a301528181610da601528181610dca015261311a01526000818161095f01526138410152615e6e6000f3fe6080604052600436106101665760003560e01c80634f08690e116100d1578063a74764931161008a578063b9cafa9611610064578063b9cafa96146104e8578063cf5303cf146104f2578063e60a32131461051e578063ff8841521461054957610166565b8063a74764931461047c578063a81a01b414610493578063af49721f146104bf57610166565b80634f08690e14610384578063525859211461039b57806357526587146103c457806363f45244146104015780636abac6a81461042a578063744bfe611461045357610166565b80632967c906116101235780632967c906146102855780632f252161146102ae5780633322b23d146102da57806338e3486c146103055780633a8e65a71461033057806346ee3c591461035957610166565b8063020055f91461016b57806303aa7845146101b2578063049aacfe146101c957806310f8ec49146101f45780631e4e446e1461023157806328f150eb1461025a575b600080fd5b34801561017757600080fd5b50610192600480360381019061018d91906143fd565b610574565b6040516101a99b9a999897969594939291906144f1565b60405180910390f35b3480156101be57600080fd5b506101c7610699565b005b3480156101d557600080fd5b506101de61095d565b6040516101eb91906145bd565b60405180910390f35b34801561020057600080fd5b5061021b600480360381019061021691906145d8565b610981565b6040516102289190614605565b60405180910390f35b34801561023d57600080fd5b5061025860048036038101906102539190614620565b6109a1565b005b34801561026657600080fd5b5061026f610da4565b60405161027c9190614673565b60405180910390f35b34801561029157600080fd5b506102ac60048036038101906102a791906143fd565b610dc8565b005b3480156102ba57600080fd5b506102c361107c565b6040516102d192919061471e565b60405180910390f35b3480156102e657600080fd5b506102ef6115d7565b6040516102fc9190614767565b60405180910390f35b34801561031157600080fd5b5061031a6115dd565b6040516103279190614767565b60405180910390f35b34801561033c57600080fd5b5061035760048036038101906103529190614782565b6115e3565b005b34801561036557600080fd5b5061036e61164d565b60405161037b9190614673565b60405180910390f35b34801561039057600080fd5b50610399611671565b005b3480156103a757600080fd5b506103c260048036038101906103bd9190614cbf565b611935565b005b3480156103d057600080fd5b506103eb60048036038101906103e691906145d8565b611d4b565b6040516103f89190615171565b60405180910390f35b34801561040d57600080fd5b5061042860048036038101906104239190615193565b6120f9565b005b34801561043657600080fd5b50610451600480360381019061044c91906151dc565b61262a565b005b34801561045f57600080fd5b5061047a6004803603810190610475919061521c565b6128b1565b005b34801561048857600080fd5b506104916129f2565b005b34801561049f57600080fd5b506104a8612cb6565b6040516104b692919061471e565b60405180910390f35b3480156104cb57600080fd5b506104e660048036038101906104e191906143fd565b613118565b005b6104f061335b565b005b3480156104fe57600080fd5b5061050761337b565b60405161051592919061471e565b60405180910390f35b34801561052a57600080fd5b506105336137d0565b604051610540919061527d565b60405180910390f35b34801561055557600080fd5b5061055e6137f4565b60405161056b9190614767565b60405180910390f35b6003602052816000526040600020818154811061059057600080fd5b90600052602060002090600a0201600091509150508060000160009054906101000a900473ffffffffffffffffffffffffffffffffffffffff16908060010160009054906101000a900473ffffffffffffffffffffffffffffffffffffffff16908060020160009054906101000a900473ffffffffffffffffffffffffffffffffffffffff16908060030154908060040154908060050160009054906101000a9004600b0b9080600501600c9054906101000a9004600b0b908060090160009054906101000a900460ff16908060090160019054906101000a900460ff16908060090160029054906101000a900460ff16908060090160039054906101000a900460ff1690508b565b6000801916600154146106e1576040517f08c379a00000000000000000000000000000000000000000000000000000000081526004016106d8906152f5565b60405180910390fd5b60006040518060400160405280600267ffffffffffffffff811115610709576107086147b4565b5b6040519080825280602002602001820160405280156107375781602001602082028036833780820191505090505b508152602001600267ffffffffffffffff811115610758576107576147b4565b5b60405190808252806020026020018201604052801561078b57816020015b60608152602001906001900390816107765790505b508152509050600081600001516000815181106107ab576107aa615315565b5b602002602001019060038111156107c5576107c4615344565b5b908160038111156107d9576107d8615344565b5b81525050600281600001516001815181106107f7576107f6615315565b5b6020026020010190600381111561081157610810615344565b5b9081600381111561082557610824615344565b5b81525050610896303073ffffffffffffffffffffffffffffffffffffffff1663a81a01b4604051602401604051602081830303815290604052915060e01b6020820180517bffffffffffffffffffffffffffffffffffffffffffffffffffffffff83818316178352505050506137fa565b81602001516000815181106108ae576108ad615315565b5b60200260200101819052506108c1613826565b81602001516001815181106108d9576108d8615315565b5b602002602001018190525060006109193063af49721f60e01b60405160200161090291906153ae565b60405160208183030381529060405284600061383d565b9050806001819055507fa585557108354aa3685e5fe0424ad88ab5bcabc78119a3d599ae901ccb199993816040516109519190614767565b60405180910390a15050565b7f000000000000000000000000000000000000000000000000000000000000000081565b60056020528060005260406000206000915054906101000a900460ff1681565b7f000000000000000000000000000000000000000000000000000000000000000073ffffffffffffffffffffffffffffffffffffffff163373ffffffffffffffffffffffffffffffffffffffff1614610a2f576040517f08c379a0000000000000000000000000000000000000000000000000000000008152600401610a2690615415565b60405180910390fd5b6001600360008573ffffffffffffffffffffffffffffffffffffffff1673ffffffffffffffffffffffffffffffffffffffff1681526020019081526020016000208381548110610a8257610a81615315565b5b90600052602060002090600a02016008018281548110610aa557610aa4615315565b5b90600052602060002090602091828204019190066101000a81548160ff021916908315150217905550600360008473ffffffffffffffffffffffffffffffffffffffff1673ffffffffffffffffffffffffffffffffffffffff1681526020019081526020016000208281548110610b1f57610b1e615315565b5b90600052602060002090600a02016007018181548110610b4257610b41615315565b5b9060005260206000209060029182820401919006600c029054906101000a9004600b0b600360008573ffffffffffffffffffffffffffffffffffffffff1673ffffffffffffffffffffffffffffffffffffffff1681526020019081526020016000208381548110610bb657610bb5615315565b5b90600052602060002090600a0201600501600c6101000a8154816bffffffffffffffffffffffff0219169083600b0b6bffffffffffffffffffffffff1602179055506000600360008573ffffffffffffffffffffffffffffffffffffffff1673ffffffffffffffffffffffffffffffffffffffff1681526020019081526020016000208381548110610c4b57610c4a615315565b5b90600052602060002090600a020160020160009054906101000a900473ffffffffffffffffffffffffffffffffffffffff169050610d9d84600360008773ffffffffffffffffffffffffffffffffffffffff1673ffffffffffffffffffffffffffffffffffffffff1681526020019081526020016000208581548110610cd457610cd3615315565b5b90600052602060002090600a020160010160009054906101000a900473ffffffffffffffffffffffffffffffffffffffff16600360008873ffffffffffffffffffffffffffffffffffffffff1673ffffffffffffffffffffffffffffffffffffffff1681526020019081526020016000208681548110610d5757610d56615315565b5b90600052602060002090600a0201600501600c9054906101000a9004600b0b8473ffffffffffffffffffffffffffffffffffffffff166138eb909392919063ffffffff16565b5050505050565b7f000000000000000000000000000000000000000000000000000000000000000081565b7f000000000000000000000000000000000000000000000000000000000000000073ffffffffffffffffffffffffffffffffffffffff163373ffffffffffffffffffffffffffffffffffffffff1614610e56576040517f08c379a0000000000000000000000000000000000000000000000000000000008152600401610e4d90615415565b60405180910390fd5b6001600360008473ffffffffffffffffffffffffffffffffffffffff1673ffffffffffffffffffffffffffffffffffffffff1681526020019081526020016000208281548110610ea957610ea8615315565b5b90600052602060002090600a020160090160006101000a81548160ff0219169083151502179055506000600360008473ffffffffffffffffffffffffffffffffffffffff1673ffffffffffffffffffffffffffffffffffffffff1681526020019081526020016000208281548110610f2457610f23615315565b5b90600052602060002090600a020160020160009054906101000a900473ffffffffffffffffffffffffffffffffffffffff16905061107683600360008673ffffffffffffffffffffffffffffffffffffffff1673ffffffffffffffffffffffffffffffffffffffff1681526020019081526020016000208481548110610fad57610fac615315565b5b90600052602060002090600a020160010160009054906101000a900473ffffffffffffffffffffffffffffffffffffffff16600360008773ffffffffffffffffffffffffffffffffffffffff1673ffffffffffffffffffffffffffffffffffffffff16815260200190815260200160002085815481106110305761102f615315565b5b90600052602060002090600a020160050160009054906101000a9004600b0b8473ffffffffffffffffffffffffffffffffffffffff16613aa1909392919063ffffffff16565b50505050565b6000606060005b6004805490508110156115d15760005b60036000600484815481106110ab576110aa615315565b5b9060005260206000200160009054906101000a900473ffffffffffffffffffffffffffffffffffffffff1673ffffffffffffffffffffffffffffffffffffffff1673ffffffffffffffffffffffffffffffffffffffff168152602001908152602001600020805490508110156115bd5760001515600360006004858154811061113757611136615315565b5b9060005260206000200160009054906101000a900473ffffffffffffffffffffffffffffffffffffffff1673ffffffffffffffffffffffffffffffffffffffff1673ffffffffffffffffffffffffffffffffffffffff16815260200190815260200160002082815481106111ae576111ad615315565b5b90600052602060002090600a020160090160029054906101000a900460ff161515036115aa5760005b60036000600485815481106111ef576111ee615315565b5b9060005260206000200160009054906101000a900473ffffffffffffffffffffffffffffffffffffffff1673ffffffffffffffffffffffffffffffffffffffff1673ffffffffffffffffffffffffffffffffffffffff168152602001908152602001600020828154811061126657611265615315565b5b90600052602060002090600a0201600601805490508110156115a85760001515600360006004868154811061129e5761129d615315565b5b9060005260206000200160009054906101000a900473ffffffffffffffffffffffffffffffffffffffff1673ffffffffffffffffffffffffffffffffffffffff1673ffffffffffffffffffffffffffffffffffffffff168152602001908152602001600020838154811061131557611314615315565b5b90600052602060002090600a0201600801828154811061133857611337615315565b5b90600052602060002090602091828204019190069054906101000a900460ff1615150361159557600360006004858154811061137757611376615315565b5b9060005260206000200160009054906101000a900473ffffffffffffffffffffffffffffffffffffffff1673ffffffffffffffffffffffffffffffffffffffff1673ffffffffffffffffffffffffffffffffffffffff16815260200190815260200160002082815481106113ee576113ed615315565b5b90600052602060002090600a0201600601818154811061141157611410615315565b5b906000526020600020015442119450631e4e446e60e01b60036000600486815481106114405761143f615315565b5b9060005260206000200160009054906101000a900473ffffffffffffffffffffffffffffffffffffffff1673ffffffffffffffffffffffffffffffffffffffff1673ffffffffffffffffffffffffffffffffffffffff16815260200190815260200160002083815481106114b7576114b6615315565b5b90600052602060002090600a020160000160009054906101000a900473ffffffffffffffffffffffffffffffffffffffff1683836040516024016114fd93929190615435565b604051602081830303815290604052907bffffffffffffffffffffffffffffffffffffffffffffffffffffffff19166020820180517bffffffffffffffffffffffffffffffffffffffffffffffffffffffff83818316178352505050509350841561156e57600194505050506115d3565b6000604051806060016040528060238152602001615e1660239139945094505050506115d3565b80806115a09061549b565b9150506111d7565b505b80806115b59061549b565b915050611093565b5080806115c99061549b565b915050611083565b505b9091565b60005481565b60025481565b42600360003373ffffffffffffffffffffffffffffffffffffffff1673ffffffffffffffffffffffffffffffffffffffff168152602001908152602001600020828154811061163557611634615315565b5b90600052602060002090600a02016004018190555050565b7f000000000000000000000000000000000000000000000000000000000000000081565b6000801916600254146116b9576040517f08c379a00000000000000000000000000000000000000000000000000000000081526004016116b0906152f5565b60405180910390fd5b60006040518060400160405280600267ffffffffffffffff8111156116e1576116e06147b4565b5b60405190808252806020026020018201604052801561170f5781602001602082028036833780820191505090505b508152602001600267ffffffffffffffff8111156117305761172f6147b4565b5b60405190808252806020026020018201604052801561176357816020015b606081526020019060019003908161174e5790505b5081525090506000816000015160008151811061178357611782615315565b5b6020026020010190600381111561179d5761179c615344565b5b908160038111156117b1576117b0615344565b5b81525050600281600001516001815181106117cf576117ce615315565b5b602002602001019060038111156117e9576117e8615344565b5b908160038111156117fd576117fc615344565b5b8152505061186e303073ffffffffffffffffffffffffffffffffffffffff16632f252161604051602401604051602081830303815290604052915060e01b6020820180517bffffffffffffffffffffffffffffffffffffffffffffffffffffffff83818316178352505050506137fa565b816020015160008151811061188657611885615315565b5b6020026020010181905250611899613826565b81602001516001815181106118b1576118b0615315565b5b602002602001018190525060006118f130631e4e446e60e01b6040516020016118da91906153ae565b60405160208183030381529060405284600061383d565b9050806002819055507fa585557108354aa3685e5fe0424ad88ab5bcabc78119a3d599ae901ccb199993816040516119299190614767565b60405180910390a15050565b806101a0015115611d4757806080015181606001511061198a576040517f08c379a000000000000000000000000000000000000000000000000000000000815260040161198190615555565b60405180910390fd5b806101600151611aa95760005b60018260e00151516119a99190615575565b811015611aa75781606001518260e0015182815181106119cc576119cb615315565b5b6020026020010151118015611a02575081608001518260e0015182815181106119f8576119f7615315565b5b6020026020010151105b8015611a5557508160e00151600182611a1b91906155a9565b81518110611a2c57611a2b615315565b5b60200260200101518260e001518281518110611a4b57611a4a615315565b5b6020026020010151105b611a94576040517f08c379a0000000000000000000000000000000000000000000000000000000008152600401611a8b90615629565b60405180910390fd5b8080611a9f9061549b565b915050611997565b505b80600360003373ffffffffffffffffffffffffffffffffffffffff1673ffffffffffffffffffffffffffffffffffffffff1681526020019081526020016000208381548110611afb57611afa615315565b5b90600052602060002090600a020160008201518160000160006101000a81548173ffffffffffffffffffffffffffffffffffffffff021916908373ffffffffffffffffffffffffffffffffffffffff16021790555060208201518160010160006101000a81548173ffffffffffffffffffffffffffffffffffffffff021916908373ffffffffffffffffffffffffffffffffffffffff16021790555060408201518160020160006101000a81548173ffffffffffffffffffffffffffffffffffffffff021916908373ffffffffffffffffffffffffffffffffffffffff160217905550606082015181600301556080820151816004015560a08201518160050160006101000a8154816bffffffffffffffffffffffff0219169083600b0b6bffffffffffffffffffffffff16021790555060c082015181600501600c6101000a8154816bffffffffffffffffffffffff0219169083600b0b6bffffffffffffffffffffffff16021790555060e0820151816006019080519060200190611c8292919061417a565b50610100820151816007019080519060200190611ca09291906141c7565b50610120820151816008019080519060200190611cbe929190614292565b506101408201518160090160006101000a81548160ff0219169083151502179055506101608201518160090160016101000a81548160ff0219169083151502179055506101808201518160090160026101000a81548160ff0219169083151502179055506101a08201518160090160036101000a81548160ff0219169083151502179055509050505b5050565b6060600360008373ffffffffffffffffffffffffffffffffffffffff1673ffffffffffffffffffffffffffffffffffffffff168152602001908152602001600020805480602002602001604051908101604052809291908181526020016000905b828210156120ee57838290600052602060002090600a0201604051806101c00160405290816000820160009054906101000a900473ffffffffffffffffffffffffffffffffffffffff1673ffffffffffffffffffffffffffffffffffffffff1673ffffffffffffffffffffffffffffffffffffffff1681526020016001820160009054906101000a900473ffffffffffffffffffffffffffffffffffffffff1673ffffffffffffffffffffffffffffffffffffffff1673ffffffffffffffffffffffffffffffffffffffff1681526020016002820160009054906101000a900473ffffffffffffffffffffffffffffffffffffffff1673ffffffffffffffffffffffffffffffffffffffff1673ffffffffffffffffffffffffffffffffffffffff16815260200160038201548152602001600482015481526020016005820160009054906101000a9004600b0b600b0b600b0b815260200160058201600c9054906101000a9004600b0b600b0b600b0b815260200160068201805480602002602001604051908101604052809291908181526020018280548015611f6f57602002820191906000526020600020905b815481526020019060010190808311611f5b575b5050505050815260200160078201805480602002602001604051908101604052809291908181526020018280548015611fed57602002820191906000526020600020906000905b82829054906101000a9004600b0b600b0b815260200190600c0190602082600b01049283019260010382029150808411611fb65790505b505050505081526020016008820180548060200260200160405190810160405280929190818152602001828054801561206a57602002820191906000526020600020906000905b82829054906101000a900460ff161515815260200190600101906020826000010492830192600103820291508084116120345790505b505050505081526020016009820160009054906101000a900460ff161515151581526020016009820160019054906101000a900460ff161515151581526020016009820160029054906101000a900460ff161515151581526020016009820160039054906101000a900460ff16151515158152505081526020019060010190611dac565b505050509050919050565b806101a001511561226e57806080015181606001511061214e576040517f08c379a000000000000000000000000000000000000000000000000000000000815260040161214590615555565b60405180910390fd5b80610160015161226d5760005b60018260e001515161216d9190615575565b81101561226b5781606001518260e0015182815181106121905761218f615315565b5b60200260200101511180156121c6575081608001518260e0015182815181106121bc576121bb615315565b5b6020026020010151105b801561221957508160e001516001826121df91906155a9565b815181106121f0576121ef615315565b5b60200260200101518260e00151828151811061220f5761220e615315565b5b6020026020010151105b612258576040517f08c379a000000000000000000000000000000000000000000000000000000000815260040161224f90615629565b60405180910390fd5b80806122639061549b565b91505061215b565b505b5b600360003373ffffffffffffffffffffffffffffffffffffffff1673ffffffffffffffffffffffffffffffffffffffff1681526020019081526020016000208190806001815401808255809150506001900390600052602060002090600a020160009091909190915060008201518160000160006101000a81548173ffffffffffffffffffffffffffffffffffffffff021916908373ffffffffffffffffffffffffffffffffffffffff16021790555060208201518160010160006101000a81548173ffffffffffffffffffffffffffffffffffffffff021916908373ffffffffffffffffffffffffffffffffffffffff16021790555060408201518160020160006101000a81548173ffffffffffffffffffffffffffffffffffffffff021916908373ffffffffffffffffffffffffffffffffffffffff160217905550606082015181600301556080820151816004015560a08201518160050160006101000a8154816bffffffffffffffffffffffff0219169083600b0b6bffffffffffffffffffffffff16021790555060c082015181600501600c6101000a8154816bffffffffffffffffffffffff0219169083600b0b6bffffffffffffffffffffffff16021790555060e082015181600601908051906020019061245092919061417a565b5061010082015181600701908051906020019061246e9291906141c7565b5061012082015181600801908051906020019061248c929190614292565b506101408201518160090160006101000a81548160ff0219169083151502179055506101608201518160090160016101000a81548160ff0219169083151502179055506101808201518160090160026101000a81548160ff0219169083151502179055506101a08201518160090160036101000a81548160ff021916908315150217905550505060001515600560003373ffffffffffffffffffffffffffffffffffffffff1673ffffffffffffffffffffffffffffffffffffffff16815260200190815260200160002060009054906101000a900460ff16151503612627576004339080600181540180825580915050600190039060005260206000200160009091909190916101000a81548173ffffffffffffffffffffffffffffffffffffffff021916908373ffffffffffffffffffffffffffffffffffffffff1602179055506001600560003373ffffffffffffffffffffffffffffffffffffffff1673ffffffffffffffffffffffffffffffffffffffff16815260200190815260200160002060006101000a81548160ff0219169083151502179055505b50565b81600360003373ffffffffffffffffffffffffffffffffffffffff1673ffffffffffffffffffffffffffffffffffffffff168152602001908152602001600020828154811061267c5761267b615315565b5b90600052602060002090600a0201600501600c6101000a8154816bffffffffffffffffffffffff0219169083600b0b6bffffffffffffffffffffffff160217905550600360003373ffffffffffffffffffffffffffffffffffffffff1673ffffffffffffffffffffffffffffffffffffffff168152602001908152602001600020818154811061270f5761270e615315565b5b90600052602060002090600a0201600701829080600181540180825580915050600190039060005260206000209060029182820401919006600c029091909190916101000a8154816bffffffffffffffffffffffff0219169083600b0b6bffffffffffffffffffffffff160217905550600360003373ffffffffffffffffffffffffffffffffffffffff1673ffffffffffffffffffffffffffffffffffffffff16815260200190815260200160002081815481106127d0576127cf615315565b5b90600052602060002090600a0201600601429080600181540180825580915050600190039060005260206000200160009091909190915055600360003373ffffffffffffffffffffffffffffffffffffffff1673ffffffffffffffffffffffffffffffffffffffff168152602001908152602001600020818154811061285957612858615315565b5b90600052602060002090600a0201600801600090806001815401808255809150506001900390600052602060002090602091828204019190069091909190916101000a81548160ff0219169083151502179055505050565b7f000000000000000000000000000000000000000000000000000000000000000073ffffffffffffffffffffffffffffffffffffffff163373ffffffffffffffffffffffffffffffffffffffff161461293f576040517f08c379a0000000000000000000000000000000000000000000000000000000008152600401612936906156bb565b60405180910390fd5b7f000000000000000000000000000000000000000000000000000000000000000073ffffffffffffffffffffffffffffffffffffffff16631c20fadd7f000000000000000000000000000000000000000000000000000000000000000083856040518463ffffffff1660e01b81526004016129bc939291906156fc565b600060405180830381600087803b1580156129d657600080fd5b505af11580156129ea573d6000803e3d6000fd5b505050505050565b600080191660005414612a3a576040517f08c379a0000000000000000000000000000000000000000000000000000000008152600401612a31906152f5565b60405180910390fd5b60006040518060400160405280600267ffffffffffffffff811115612a6257612a616147b4565b5b604051908082528060200260200182016040528015612a905781602001602082028036833780820191505090505b508152602001600267ffffffffffffffff811115612ab157612ab06147b4565b5b604051908082528060200260200182016040528015612ae457816020015b6060815260200190600190039081612acf5790505b50815250905060008160000151600081518110612b0457612b03615315565b5b60200260200101906003811115612b1e57612b1d615344565b5b90816003811115612b3257612b31615344565b5b8152505060028160000151600181518110612b5057612b4f615315565b5b60200260200101906003811115612b6a57612b69615344565b5b90816003811115612b7e57612b7d615344565b5b81525050612bef303073ffffffffffffffffffffffffffffffffffffffff1663cf5303cf604051602401604051602081830303815290604052915060e01b6020820180517bffffffffffffffffffffffffffffffffffffffffffffffffffffffff83818316178352505050506137fa565b8160200151600081518110612c0757612c06615315565b5b6020026020010181905250612c1a613826565b8160200151600181518110612c3257612c31615315565b5b60200260200101819052506000612c7230632967c90660e01b604051602001612c5b91906153ae565b60405160208183030381529060405284600061383d565b9050806000819055507fa585557108354aa3685e5fe0424ad88ab5bcabc78119a3d599ae901ccb19999381604051612caa9190614767565b60405180910390a15050565b6000606060005b6004805490508110156131125760005b6003600060048481548110612ce557612ce4615315565b5b9060005260206000200160009054906101000a900473ffffffffffffffffffffffffffffffffffffffff1673ffffffffffffffffffffffffffffffffffffffff1673ffffffffffffffffffffffffffffffffffffffff168152602001908152602001600020805490508110156130fe57600015156003600060048581548110612d7157612d70615315565b5b9060005260206000200160009054906101000a900473ffffffffffffffffffffffffffffffffffffffff1673ffffffffffffffffffffffffffffffffffffffff1673ffffffffffffffffffffffffffffffffffffffff1681526020019081526020016000208281548110612de857612de7615315565b5b90600052602060002090600a020160090160029054906101000a900460ff161515036130eb5760006003600060048581548110612e2857612e27615315565b5b9060005260206000200160009054906101000a900473ffffffffffffffffffffffffffffffffffffffff1673ffffffffffffffffffffffffffffffffffffffff1673ffffffffffffffffffffffffffffffffffffffff1681526020019081526020016000208281548110612e9f57612e9e615315565b5b90600052602060002090600a02016004015411156130ea576003600060048481548110612ecf57612ece615315565b5b9060005260206000200160009054906101000a900473ffffffffffffffffffffffffffffffffffffffff1673ffffffffffffffffffffffffffffffffffffffff1673ffffffffffffffffffffffffffffffffffffffff1681526020019081526020016000208181548110612f4657612f45615315565b5b90600052602060002090600a0201600401544211935063af49721f60e01b6003600060048581548110612f7c57612f7b615315565b5b9060005260206000200160009054906101000a900473ffffffffffffffffffffffffffffffffffffffff1673ffffffffffffffffffffffffffffffffffffffff1673ffffffffffffffffffffffffffffffffffffffff1681526020019081526020016000208281548110612ff357612ff2615315565b5b90600052602060002090600a020160000160009054906101000a900473ffffffffffffffffffffffffffffffffffffffff1682604051602401613037929190615733565b604051602081830303815290604052907bffffffffffffffffffffffffffffffffffffffffffffffffffffffff19166020820180517bffffffffffffffffffffffffffffffffffffffffffffffffffffffff8381831617835250505050925083156130a757600193505050613114565b60006040518060400160405280602081526020017f536f6d652074696d65206c65667420746f20656e64207468652073747265616d815250935093505050613114565b5b80806130f69061549b565b915050612ccd565b50808061310a9061549b565b915050612cbd565b505b9091565b7f000000000000000000000000000000000000000000000000000000000000000073ffffffffffffffffffffffffffffffffffffffff163373ffffffffffffffffffffffffffffffffffffffff16146131a6576040517f08c379a000000000000000000000000000000000000000000000000000000000815260040161319d90615415565b60405180910390fd5b6001600360008473ffffffffffffffffffffffffffffffffffffffff1673ffffffffffffffffffffffffffffffffffffffff16815260200190815260200160002082815481106131f9576131f8615315565b5b90600052602060002090600a020160090160026101000a81548160ff0219169083151502179055506000600360008473ffffffffffffffffffffffffffffffffffffffff1673ffffffffffffffffffffffffffffffffffffffff168152602001908152602001600020828154811061327457613273615315565b5b90600052602060002090600a020160020160009054906101000a900473ffffffffffffffffffffffffffffffffffffffff16905061335583600360008673ffffffffffffffffffffffffffffffffffffffff1673ffffffffffffffffffffffffffffffffffffffff16815260200190815260200160002084815481106132fd576132fc615315565b5b90600052602060002090600a020160010160009054906101000a900473ffffffffffffffffffffffffffffffffffffffff168373ffffffffffffffffffffffffffffffffffffffff16613c579092919063ffffffff16565b50505050565b6133793473eeeeeeeeeeeeeeeeeeeeeeeeeeeeeeeeeeeeeeee613e0a565b565b6000606060005b6004805490508110156137ca5760005b60036000600484815481106133aa576133a9615315565b5b9060005260206000200160009054906101000a900473ffffffffffffffffffffffffffffffffffffffff1673ffffffffffffffffffffffffffffffffffffffff1673ffffffffffffffffffffffffffffffffffffffff168152602001908152602001600020805490508110156137b65760001515600360006004858154811061343657613435615315565b5b9060005260206000200160009054906101000a900473ffffffffffffffffffffffffffffffffffffffff1673ffffffffffffffffffffffffffffffffffffffff1673ffffffffffffffffffffffffffffffffffffffff16815260200190815260200160002082815481106134ad576134ac615315565b5b90600052602060002090600a020160090160029054906101000a900460ff161515036137a3576000151560036000600485815481106134ef576134ee615315565b5b9060005260206000200160009054906101000a900473ffffffffffffffffffffffffffffffffffffffff1673ffffffffffffffffffffffffffffffffffffffff1673ffffffffffffffffffffffffffffffffffffffff168152602001908152602001600020828154811061356657613565615315565b5b90600052602060002090600a020160090160009054906101000a900460ff161515036137a25760036000600484815481106135a4576135a3615315565b5b9060005260206000200160009054906101000a900473ffffffffffffffffffffffffffffffffffffffff1673ffffffffffffffffffffffffffffffffffffffff1673ffffffffffffffffffffffffffffffffffffffff168152602001908152602001600020818154811061361b5761361a615315565b5b90600052602060002090600a02016003015442119350632967c90660e01b600360006004858154811061365157613650615315565b5b9060005260206000200160009054906101000a900473ffffffffffffffffffffffffffffffffffffffff1673ffffffffffffffffffffffffffffffffffffffff1673ffffffffffffffffffffffffffffffffffffffff16815260200190815260200160002082815481106136c8576136c7615315565b5b90600052602060002090600a020160000160009054906101000a900473ffffffffffffffffffffffffffffffffffffffff168260405160240161370c929190615733565b604051602081830303815290604052907bffffffffffffffffffffffffffffffffffffffffffffffffffffffff19166020820180517bffffffffffffffffffffffffffffffffffffffffffffffffffffffff83818316178352505050509250831561377c576001935050506137cc565b6000604051806060016040528060258152602001615df1602591399350935050506137cc565b5b80806137ae9061549b565b915050613392565b5080806137c29061549b565b915050613382565b505b9091565b7f000000000000000000000000000000000000000000000000000000000000000081565b60015481565b6060828260405160200161380f92919061575c565b604051602081830303815290604052905092915050565b606060405180602001604052806000815250905090565b60007f000000000000000000000000000000000000000000000000000000000000000073ffffffffffffffffffffffffffffffffffffffff16633323b467868686866040518563ffffffff1660e01b815260040161389e94939291906159d3565b6020604051808303816000875af11580156138bd573d6000803e3d6000fd5b505050506040513d601f19601f820116820180604052508101906138e19190615a52565b9050949350505050565b60008060006138f987613ef3565b915091508173ffffffffffffffffffffffffffffffffffffffff166339255d5b828373ffffffffffffffffffffffffffffffffffffffff1663354b95908b8b8b8b600067ffffffffffffffff811115613955576139546147b4565b5b6040519080825280601f01601f1916602001820160405280156139875781602001600182028036833780820191505090505b5060405160240161399c959493929190615a7f565b604051602081830303815290604052915060e01b6020820180517bffffffffffffffffffffffffffffffffffffffffffffffffffffffff8381831617835250505050600067ffffffffffffffff8111156139f9576139f86147b4565b5b6040519080825280601f01601f191660200182016040528015613a2b5781602001600182028036833780820191505090505b506040518463ffffffff1660e01b8152600401613a4a93929190615afa565b6000604051808303816000875af1158015613a69573d6000803e3d6000fd5b505050506040513d6000823e3d601f19601f82011682018060405250810190613a929190615be5565b50600192505050949350505050565b6000806000613aaf87613ef3565b915091508173ffffffffffffffffffffffffffffffffffffffff166339255d5b828373ffffffffffffffffffffffffffffffffffffffff166394229ecb8b8b8b8b600067ffffffffffffffff811115613b0b57613b0a6147b4565b5b6040519080825280601f01601f191660200182016040528015613b3d5781602001600182028036833780820191505090505b50604051602401613b52959493929190615a7f565b604051602081830303815290604052915060e01b6020820180517bffffffffffffffffffffffffffffffffffffffffffffffffffffffff8381831617835250505050600067ffffffffffffffff811115613baf57613bae6147b4565b5b6040519080825280601f01601f191660200182016040528015613be15781602001600182028036833780820191505090505b506040518463ffffffff1660e01b8152600401613c0093929190615afa565b6000604051808303816000875af1158015613c1f573d6000803e3d6000fd5b505050506040513d6000823e3d601f19601f82011682018060405250810190613c489190615be5565b50600192505050949350505050565b6000806000613c6586613ef3565b915091508173ffffffffffffffffffffffffffffffffffffffff166339255d5b828373ffffffffffffffffffffffffffffffffffffffff1663b4b333c68a8a8a600067ffffffffffffffff811115613cc057613cbf6147b4565b5b6040519080825280601f01601f191660200182016040528015613cf25781602001600182028036833780820191505090505b50604051602401613d069493929190615c2e565b604051602081830303815290604052915060e01b6020820180517bffffffffffffffffffffffffffffffffffffffffffffffffffffffff8381831617835250505050600067ffffffffffffffff811115613d6357613d626147b4565b5b6040519080825280601f01601f191660200182016040528015613d955781602001600182028036833780820191505090505b506040518463ffffffff1660e01b8152600401613db493929190615afa565b6000604051808303816000875af1158015613dd3573d6000803e3d6000fd5b505050506040513d6000823e3d601f19601f82011682018060405250810190613dfc9190615be5565b506001925050509392505050565b600073eeeeeeeeeeeeeeeeeeeeeeeeeeeeeeeeeeeeeeee73ffffffffffffffffffffffffffffffffffffffff168273ffffffffffffffffffffffffffffffffffffffff1614613e5a576000613e5c565b825b90507f000000000000000000000000000000000000000000000000000000000000000073ffffffffffffffffffffffffffffffffffffffff1663c1461d57823085876040518563ffffffff1660e01b8152600401613ebc93929190615c7a565b6000604051808303818588803b158015613ed557600080fd5b505af1158015613ee9573d6000803e3d6000fd5b5050505050505050565b6000807f65599bf746e17a00ea62e3610586992d88101b78eec3cf380706621fb97ea8375491507fb969d79d88acd02d04ed7ee7d43b949e7daf093d363abcfbbc43dfdfd1ce969a549050600073ffffffffffffffffffffffffffffffffffffffff168173ffffffffffffffffffffffffffffffffffffffff16036140fb57600073ffffffffffffffffffffffffffffffffffffffff168273ffffffffffffffffffffffffffffffffffffffff1603614018578273ffffffffffffffffffffffffffffffffffffffff166320bc44256040518163ffffffff1660e01b8152600401602060405180830381865afa158015613ff1573d6000803e3d6000fd5b505050506040513d601f19601f820116820180604052508101906140159190615cc6565b91505b8173ffffffffffffffffffffffffffffffffffffffff1663b6d200de7fa9214cc96615e0085d3bb077758db69497dc2dce3b2b1e97bc93c3d18d83efd36040518263ffffffff1660e01b81526004016140719190615d3b565b602060405180830381865afa15801561408e573d6000803e3d6000fd5b505050506040513d601f19601f820116820180604052508101906140b29190615d94565b9050817f65599bf746e17a00ea62e3610586992d88101b78eec3cf380706621fb97ea83755807fb969d79d88acd02d04ed7ee7d43b949e7daf093d363abcfbbc43dfdfd1ce969a555b600073ffffffffffffffffffffffffffffffffffffffff168273ffffffffffffffffffffffffffffffffffffffff160361413857614137615dc1565b5b600073ffffffffffffffffffffffffffffffffffffffff168173ffffffffffffffffffffffffffffffffffffffff160361417557614174615dc1565b5b915091565b8280548282559060005260206000209081019282156141b6579160200282015b828111156141b557825182559160200191906001019061419a565b5b5090506141c39190614338565b5090565b828054828255906000526020600020906001016002900481019282156142815791602002820160005b8382111561424757835183826101000a8154816bffffffffffffffffffffffff0219169083600b0b6bffffffffffffffffffffffff1602179055509260200192600c01602081600b010492830192600103026141f0565b801561427f5782816101000a8154906bffffffffffffffffffffffff0219169055600c01602081600b01049283019260010302614247565b505b50905061428e9190614338565b5090565b82805482825590600052602060002090601f016020900481019282156143275791602002820160005b838211156142f857835183826101000a81548160ff02191690831515021790555092602001926001016020816000010492830192600103026142bb565b80156143255782816101000a81549060ff02191690556001016020816000010492830192600103026142f8565b505b5090506143349190614338565b5090565b5b80821115614351576000816000905550600101614339565b5090565b6000604051905090565b600080fd5b600080fd5b600073ffffffffffffffffffffffffffffffffffffffff82169050919050565b600061439482614369565b9050919050565b6143a481614389565b81146143af57600080fd5b50565b6000813590506143c18161439b565b92915050565b6000819050919050565b6143da816143c7565b81146143e557600080fd5b50565b6000813590506143f7816143d1565b92915050565b600080604083850312156144145761441361435f565b5b6000614422858286016143b2565b9250506020614433858286016143e8565b9150509250929050565b61444681614389565b82525050565b6000819050919050565b600061447161446c61446784614369565b61444c565b614369565b9050919050565b600061448382614456565b9050919050565b600061449582614478565b9050919050565b6144a58161448a565b82525050565b6144b4816143c7565b82525050565b600081600b0b9050919050565b6144d0816144ba565b82525050565b60008115159050919050565b6144eb816144d6565b82525050565b600061016082019050614507600083018e61443d565b614514602083018d61443d565b614521604083018c61449c565b61452e606083018b6144ab565b61453b608083018a6144ab565b61454860a08301896144c7565b61455560c08301886144c7565b61456260e08301876144e2565b6145706101008301866144e2565b61457e6101208301856144e2565b61458c6101408301846144e2565b9c9b505050505050505050505050565b60006145a782614478565b9050919050565b6145b78161459c565b82525050565b60006020820190506145d260008301846145ae565b92915050565b6000602082840312156145ee576145ed61435f565b5b60006145fc848285016143b2565b91505092915050565b600060208201905061461a60008301846144e2565b92915050565b6000806000606084860312156146395761463861435f565b5b6000614647868287016143b2565b9350506020614658868287016143e8565b9250506040614669868287016143e8565b9150509250925092565b6000602082019050614688600083018461443d565b92915050565b600081519050919050565b600082825260208201905092915050565b60005b838110156146c85780820151818401526020810190506146ad565b60008484015250505050565b6000601f19601f8301169050919050565b60006146f08261468e565b6146fa8185614699565b935061470a8185602086016146aa565b614713816146d4565b840191505092915050565b600060408201905061473360008301856144e2565b818103602083015261474581846146e5565b90509392505050565b6000819050919050565b6147618161474e565b82525050565b600060208201905061477c6000830184614758565b92915050565b6000602082840312156147985761479761435f565b5b60006147a6848285016143e8565b91505092915050565b600080fd5b7f4e487b7100000000000000000000000000000000000000000000000000000000600052604160045260246000fd5b6147ec826146d4565b810181811067ffffffffffffffff8211171561480b5761480a6147b4565b5b80604052505050565b600061481e614355565b905061482a82826147e3565b919050565b600080fd5b600061483f82614389565b9050919050565b61484f81614834565b811461485a57600080fd5b50565b60008135905061486c81614846565b92915050565b61487b816144ba565b811461488657600080fd5b50565b60008135905061489881614872565b92915050565b600080fd5b600067ffffffffffffffff8211156148be576148bd6147b4565b5b602082029050602081019050919050565b600080fd5b60006148e76148e2846148a3565b614814565b9050808382526020820190506020840283018581111561490a576149096148cf565b5b835b81811015614933578061491f88826143e8565b84526020840193505060208101905061490c565b5050509392505050565b600082601f8301126149525761495161489e565b5b81356149628482602086016148d4565b91505092915050565b600067ffffffffffffffff821115614986576149856147b4565b5b602082029050602081019050919050565b60006149aa6149a58461496b565b614814565b905080838252602082019050602084028301858111156149cd576149cc6148cf565b5b835b818110156149f657806149e28882614889565b8452602084019350506020810190506149cf565b5050509392505050565b600082601f830112614a1557614a1461489e565b5b8135614a25848260208601614997565b91505092915050565b600067ffffffffffffffff821115614a4957614a486147b4565b5b602082029050602081019050919050565b614a63816144d6565b8114614a6e57600080fd5b50565b600081359050614a8081614a5a565b92915050565b6000614a99614a9484614a2e565b614814565b90508083825260208201905060208402830185811115614abc57614abb6148cf565b5b835b81811015614ae55780614ad18882614a71565b845260208401935050602081019050614abe565b5050509392505050565b600082601f830112614b0457614b0361489e565b5b8135614b14848260208601614a86565b91505092915050565b60006101c08284031215614b3457614b336147af565b5b614b3f6101c0614814565b90506000614b4f848285016143b2565b6000830152506020614b63848285016143b2565b6020830152506040614b778482850161485d565b6040830152506060614b8b848285016143e8565b6060830152506080614b9f848285016143e8565b60808301525060a0614bb384828501614889565b60a08301525060c0614bc784828501614889565b60c08301525060e082013567ffffffffffffffff811115614beb57614bea61482f565b5b614bf78482850161493d565b60e08301525061010082013567ffffffffffffffff811115614c1c57614c1b61482f565b5b614c2884828501614a00565b6101008301525061012082013567ffffffffffffffff811115614c4e57614c4d61482f565b5b614c5a84828501614aef565b61012083015250610140614c7084828501614a71565b61014083015250610160614c8684828501614a71565b61016083015250610180614c9c84828501614a71565b610180830152506101a0614cb284828501614a71565b6101a08301525092915050565b60008060408385031215614cd657614cd561435f565b5b6000614ce4858286016143e8565b925050602083013567ffffffffffffffff811115614d0557614d04614364565b5b614d1185828601614b1d565b9150509250929050565b600081519050919050565b600082825260208201905092915050565b6000819050602082019050919050565b614d5081614389565b82525050565b614d5f8161448a565b82525050565b614d6e816143c7565b82525050565b614d7d816144ba565b82525050565b600081519050919050565b600082825260208201905092915050565b6000819050602082019050919050565b6000614dbb8383614d65565b60208301905092915050565b6000602082019050919050565b6000614ddf82614d83565b614de98185614d8e565b9350614df483614d9f565b8060005b83811015614e25578151614e0c8882614daf565b9750614e1783614dc7565b925050600181019050614df8565b5085935050505092915050565b600081519050919050565b600082825260208201905092915050565b6000819050602082019050919050565b6000614e6a8383614d74565b60208301905092915050565b6000602082019050919050565b6000614e8e82614e32565b614e988185614e3d565b9350614ea383614e4e565b8060005b83811015614ed4578151614ebb8882614e5e565b9750614ec683614e76565b925050600181019050614ea7565b5085935050505092915050565b600081519050919050565b600082825260208201905092915050565b6000819050602082019050919050565b614f16816144d6565b82525050565b6000614f288383614f0d565b60208301905092915050565b6000602082019050919050565b6000614f4c82614ee1565b614f568185614eec565b9350614f6183614efd565b8060005b83811015614f92578151614f798882614f1c565b9750614f8483614f34565b925050600181019050614f65565b5085935050505092915050565b60006101c083016000830151614fb86000860182614d47565b506020830151614fcb6020860182614d47565b506040830151614fde6040860182614d56565b506060830151614ff16060860182614d65565b5060808301516150046080860182614d65565b5060a083015161501760a0860182614d74565b5060c083015161502a60c0860182614d74565b5060e083015184820360e08601526150428282614dd4565b91505061010083015184820361010086015261505e8282614e83565b91505061012083015184820361012086015261507a8282614f41565b915050610140830151615091610140860182614f0d565b506101608301516150a6610160860182614f0d565b506101808301516150bb610180860182614f0d565b506101a08301516150d06101a0860182614f0d565b508091505092915050565b60006150e78383614f9f565b905092915050565b6000602082019050919050565b600061510782614d1b565b6151118185614d26565b93508360208202850161512385614d37565b8060005b8581101561515f578484038952815161514085826150db565b945061514b836150ef565b925060208a01995050600181019050615127565b50829750879550505050505092915050565b6000602082019050818103600083015261518b81846150fc565b905092915050565b6000602082840312156151a9576151a861435f565b5b600082013567ffffffffffffffff8111156151c7576151c6614364565b5b6151d384828501614b1d565b91505092915050565b600080604083850312156151f3576151f261435f565b5b600061520185828601614889565b9250506020615212858286016143e8565b9150509250929050565b600080604083850312156152335761523261435f565b5b6000615241858286016143e8565b9250506020615252858286016143b2565b9150509250929050565b600061526782614478565b9050919050565b6152778161525c565b82525050565b6000602082019050615292600083018461526e565b92915050565b600082825260208201905092915050565b7f416c72656164792073746172746564207461736b000000000000000000000000600082015250565b60006152df601483615298565b91506152ea826152a9565b602082019050919050565b6000602082019050818103600083015261530e816152d2565b9050919050565b7f4e487b7100000000000000000000000000000000000000000000000000000000600052603260045260246000fd5b7f4e487b7100000000000000000000000000000000000000000000000000000000600052602160045260246000fd5b60007fffffffff0000000000000000000000000000000000000000000000000000000082169050919050565b6153a881615373565b82525050565b60006020820190506153c3600083018461539f565b92915050565b7f4f6e6c7920646564696361746564206d73672e73656e64657200000000000000600082015250565b60006153ff601983615298565b915061540a826153c9565b602082019050919050565b6000602082019050818103600083015261542e816153f2565b9050919050565b600060608201905061544a600083018661443d565b61545760208301856144ab565b61546460408301846144ab565b949350505050565b7f4e487b7100000000000000000000000000000000000000000000000000000000600052601160045260246000fd5b60006154a6826143c7565b91507fffffffffffffffffffffffffffffffffffffffffffffffffffffffffffffffff82036154d8576154d761546c565b5b600182019050919050565b7f53746172742074696d652073686f756c64206265206c657373207468616e207460008201527f686520656e642074696d65000000000000000000000000000000000000000000602082015250565b600061553f602b83615298565b915061554a826154e3565b604082019050919050565b6000602082019050818103600083015261556e81615532565b9050919050565b6000615580826143c7565b915061558b836143c7565b92508282039050818111156155a3576155a261546c565b5b92915050565b60006155b4826143c7565b91506155bf836143c7565b92508282019050808211156155d7576155d661546c565b5b92915050565b7f456e6574722070726f7065722074696d657374616d7000000000000000000000600082015250565b6000615613601683615298565b915061561e826155dd565b602082019050919050565b6000602082019050818103600083015261564281615606565b9050919050565b7f4f6e6c792066756e6473206f776e65722063616e20776974686472617720667560008201527f6e64730000000000000000000000000000000000000000000000000000000000602082015250565b60006156a5602383615298565b91506156b082615649565b604082019050919050565b600060208201905081810360008301526156d481615698565b9050919050565b60006156e682614369565b9050919050565b6156f6816156db565b82525050565b600060608201905061571160008301866156ed565b61571e602083018561443d565b61572b60408301846144ab565b949350505050565b6000604082019050615748600083018561443d565b61575560208301846144ab565b9392505050565b6000604082019050615771600083018561443d565b818103602083015261578381846146e5565b90509392505050565b600081519050919050565b600082825260208201905092915050565b6000819050602082019050919050565b600481106157c9576157c8615344565b5b50565b60008190506157da826157b8565b919050565b60006157ea826157cc565b9050919050565b6157fa816157df565b82525050565b600061580c83836157f1565b60208301905092915050565b6000602082019050919050565b60006158308261578c565b61583a8185615797565b9350615845836157a8565b8060005b8381101561587657815161585d8882615800565b975061586883615818565b925050600181019050615849565b5085935050505092915050565b600081519050919050565b600082825260208201905092915050565b6000819050602082019050919050565b600082825260208201905092915050565b60006158cb8261468e565b6158d581856158af565b93506158e58185602086016146aa565b6158ee816146d4565b840191505092915050565b600061590583836158c0565b905092915050565b6000602082019050919050565b600061592582615883565b61592f818561588e565b9350836020820285016159418561589f565b8060005b8581101561597d578484038952815161595e85826158f9565b94506159698361590d565b925060208a01995050600181019050615945565b50829750879550505050505092915050565b600060408301600083015184820360008601526159ac8282615825565b915050602083015184820360208601526159c6828261591a565b9150508091505092915050565b60006080820190506159e8600083018761443d565b81810360208301526159fa81866146e5565b90508181036040830152615a0e818561598f565b9050615a1d606083018461443d565b95945050505050565b615a2f8161474e565b8114615a3a57600080fd5b50565b600081519050615a4c81615a26565b92915050565b600060208284031215615a6857615a6761435f565b5b6000615a7684828501615a3d565b91505092915050565b600060a082019050615a94600083018861449c565b615aa1602083018761443d565b615aae604083018661443d565b615abb60608301856144c7565b8181036080830152615acd81846146e5565b90509695505050505050565b6000615ae482614478565b9050919050565b615af481615ad9565b82525050565b6000606082019050615b0f6000830186615aeb565b8181036020830152615b2181856146e5565b90508181036040830152615b3581846146e5565b9050949350505050565b600080fd5b600067ffffffffffffffff821115615b5f57615b5e6147b4565b5b615b68826146d4565b9050602081019050919050565b6000615b88615b8384615b44565b614814565b905082815260208101848484011115615ba457615ba3615b3f565b5b615baf8482856146aa565b509392505050565b600082601f830112615bcc57615bcb61489e565b5b8151615bdc848260208601615b75565b91505092915050565b600060208284031215615bfb57615bfa61435f565b5b600082015167ffffffffffffffff811115615c1957615c18614364565b5b615c2584828501615bb7565b91505092915050565b6000608082019050615c43600083018761449c565b615c50602083018661443d565b615c5d604083018561443d565b8181036060830152615c6f81846146e5565b905095945050505050565b6000606082019050615c8f600083018661443d565b615c9c602083018561443d565b615ca960408301846144ab565b949350505050565b600081519050615cc08161439b565b92915050565b600060208284031215615cdc57615cdb61435f565b5b6000615cea84828501615cb1565b91505092915050565b6000819050919050565b60008160001b9050919050565b6000615d25615d20615d1b84615cf3565b615cfd565b61474e565b9050919050565b615d3581615d0a565b82525050565b6000602082019050615d506000830184615d2c565b92915050565b6000615d6182614389565b9050919050565b615d7181615d56565b8114615d7c57600080fd5b50565b600081519050615d8e81615d68565b92915050565b600060208284031215615daa57615da961435f565b5b6000615db884828501615d7f565b91505092915050565b7f4e487b7100000000000000000000000000000000000000000000000000000000600052600160045260246000fdfe536f6d652074696d65206973206c65667420746f207374617274207468652073747265616d536f6d652074696d65206c65667420746f20757064617465207468652073747265616da2646970667358221220225bee26e7b273ca68c5f47a35f511353276ece69d0f4eaee6cfea063f8802e764736f6c63430008120033",
  "linkReferences": {},
  "deployedLinkReferences": {}
}