{
  "_format": "hh-sol-artifact-1",
  "contractName": "Trial",
  "sourceName": "contracts/Trial.sol",
  "abi": [
    {
      "inputs": [
        {
          "internalType": "address",
          "name": "_automate",
          "type": "address"
        },
        {
          "internalType": "address",
          "name": "_fundsOwner",
          "type": "address"
        }
      ],
      "stateMutability": "nonpayable",
      "type": "constructor"
    },
    {
      "anonymous": false,
      "inputs": [
        {
          "indexed": false,
          "internalType": "bytes32",
          "name": "taskId",
          "type": "bytes32"
        }
      ],
      "name": "CounterTaskCreated",
      "type": "event"
    },
    {
      "inputs": [],
      "name": "automate",
      "outputs": [
        {
          "internalType": "contract IAutomate",
          "name": "",
          "type": "address"
        }
      ],
      "stateMutability": "view",
      "type": "function"
    },
    {
      "inputs": [],
      "name": "checker",
      "outputs": [
        {
          "internalType": "bool",
          "name": "canExec",
          "type": "bool"
        },
        {
          "internalType": "bytes",
          "name": "execPayload",
          "type": "bytes"
        }
      ],
      "stateMutability": "view",
      "type": "function"
    },
    {
      "inputs": [],
      "name": "checker1",
      "outputs": [
        {
          "internalType": "bool",
          "name": "canExec",
          "type": "bool"
        },
        {
          "internalType": "bytes",
          "name": "execPayload",
          "type": "bytes"
        }
      ],
      "stateMutability": "view",
      "type": "function"
    },
    {
      "inputs": [],
      "name": "checker2",
      "outputs": [
        {
          "internalType": "bool",
          "name": "canExec",
          "type": "bool"
        },
        {
          "internalType": "bytes",
          "name": "execPayload",
          "type": "bytes"
        }
      ],
      "stateMutability": "view",
      "type": "function"
    },
    {
      "inputs": [
        {
          "internalType": "address",
          "name": "_sender",
          "type": "address"
        },
        {
          "internalType": "uint256",
          "name": "j",
          "type": "uint256"
        }
      ],
      "name": "createFlowIntoContract",
      "outputs": [],
      "stateMutability": "nonpayable",
      "type": "function"
    },
    {
      "inputs": [],
      "name": "createTask",
      "outputs": [],
      "stateMutability": "nonpayable",
      "type": "function"
    },
    {
      "inputs": [],
      "name": "createTask1",
      "outputs": [],
      "stateMutability": "nonpayable",
      "type": "function"
    },
    {
      "inputs": [],
      "name": "createTask2",
      "outputs": [],
      "stateMutability": "nonpayable",
      "type": "function"
    },
    {
      "inputs": [],
      "name": "dedicatedMsgSender",
      "outputs": [
        {
          "internalType": "address",
          "name": "",
          "type": "address"
        }
      ],
      "stateMutability": "view",
      "type": "function"
    },
    {
      "inputs": [
        {
          "internalType": "address",
          "name": "_sender",
          "type": "address"
        },
        {
          "internalType": "uint256",
          "name": "j",
          "type": "uint256"
        }
      ],
      "name": "deleteFlowIntoContract",
      "outputs": [],
      "stateMutability": "nonpayable",
      "type": "function"
    },
    {
      "inputs": [],
      "name": "depositForCounter",
      "outputs": [],
      "stateMutability": "payable",
      "type": "function"
    },
    {
      "inputs": [],
      "name": "fundsOwner",
      "outputs": [
        {
          "internalType": "address",
          "name": "",
          "type": "address"
        }
      ],
      "stateMutability": "view",
      "type": "function"
    },
    {
      "inputs": [
        {
          "internalType": "address",
          "name": "_user",
          "type": "address"
        }
      ],
      "name": "getAllUserStreams",
      "outputs": [
        {
          "components": [
            {
              "internalType": "address",
              "name": "user",
              "type": "address"
            },
            {
              "internalType": "address",
              "name": "receiver",
              "type": "address"
            },
            {
              "internalType": "contract ISuperToken",
              "name": "token",
              "type": "address"
            },
            {
              "internalType": "uint256",
              "name": "startTime",
              "type": "uint256"
            },
            {
              "internalType": "uint256",
              "name": "endTime",
              "type": "uint256"
            },
            {
              "internalType": "int96",
              "name": "startFlowRate",
              "type": "int96"
            },
            {
              "internalType": "int96",
              "name": "flowRate",
              "type": "int96"
            },
            {
              "internalType": "uint256[]",
              "name": "updateTime",
              "type": "uint256[]"
            },
            {
              "internalType": "int96[]",
              "name": "updateFlowRate",
              "type": "int96[]"
            },
            {
              "internalType": "bool[]",
              "name": "isFlowUpdated",
              "type": "bool[]"
            },
            {
              "internalType": "bool",
              "name": "isStarted",
              "type": "bool"
            },
            {
              "internalType": "bool",
              "name": "isUpadetd",
              "type": "bool"
            },
            {
              "internalType": "bool",
              "name": "isDeleted",
              "type": "bool"
            }
          ],
          "internalType": "struct Trial.StreamDetails[]",
          "name": "",
          "type": "tuple[]"
        }
      ],
      "stateMutability": "view",
      "type": "function"
    },
    {
      "inputs": [
        {
          "internalType": "address",
          "name": "",
          "type": "address"
        }
      ],
      "name": "isUserAdded",
      "outputs": [
        {
          "internalType": "bool",
          "name": "",
          "type": "bool"
        }
      ],
      "stateMutability": "view",
      "type": "function"
    },
    {
      "inputs": [
        {
          "components": [
            {
              "internalType": "address",
              "name": "user",
              "type": "address"
            },
            {
              "internalType": "address",
              "name": "receiver",
              "type": "address"
            },
            {
              "internalType": "contract ISuperToken",
              "name": "token",
              "type": "address"
            },
            {
              "internalType": "uint256",
              "name": "startTime",
              "type": "uint256"
            },
            {
              "internalType": "uint256",
              "name": "endTime",
              "type": "uint256"
            },
            {
              "internalType": "int96",
              "name": "startFlowRate",
              "type": "int96"
            },
            {
              "internalType": "int96",
              "name": "flowRate",
              "type": "int96"
            },
            {
              "internalType": "uint256[]",
              "name": "updateTime",
              "type": "uint256[]"
            },
            {
              "internalType": "int96[]",
              "name": "updateFlowRate",
              "type": "int96[]"
            },
            {
              "internalType": "bool[]",
              "name": "isFlowUpdated",
              "type": "bool[]"
            },
            {
              "internalType": "bool",
              "name": "isStarted",
              "type": "bool"
            },
            {
              "internalType": "bool",
              "name": "isUpadetd",
              "type": "bool"
            },
            {
              "internalType": "bool",
              "name": "isDeleted",
              "type": "bool"
            }
          ],
          "internalType": "struct Trial.StreamDetails[]",
          "name": "data",
          "type": "tuple[]"
        }
      ],
      "name": "scheduleStream",
      "outputs": [],
      "stateMutability": "nonpayable",
      "type": "function"
    },
    {
      "inputs": [],
      "name": "taskId",
      "outputs": [
        {
          "internalType": "bytes32",
          "name": "",
          "type": "bytes32"
        }
      ],
      "stateMutability": "view",
      "type": "function"
    },
    {
      "inputs": [],
      "name": "taskId1",
      "outputs": [
        {
          "internalType": "bytes32",
          "name": "",
          "type": "bytes32"
        }
      ],
      "stateMutability": "view",
      "type": "function"
    },
    {
      "inputs": [],
      "name": "taskId2",
      "outputs": [
        {
          "internalType": "bytes32",
          "name": "",
          "type": "bytes32"
        }
      ],
      "stateMutability": "view",
      "type": "function"
    },
    {
      "inputs": [],
      "name": "taskTreasury",
      "outputs": [
        {
          "internalType": "contract ITaskTreasuryUpgradable",
          "name": "",
          "type": "address"
        }
      ],
      "stateMutability": "view",
      "type": "function"
    },
    {
      "inputs": [
        {
          "internalType": "address",
          "name": "_sender",
          "type": "address"
        },
        {
          "internalType": "uint256",
          "name": "j",
          "type": "uint256"
        },
        {
          "internalType": "uint256",
          "name": "k",
          "type": "uint256"
        }
      ],
      "name": "updateFlowIntoContract",
      "outputs": [],
      "stateMutability": "nonpayable",
      "type": "function"
    },
    {
      "inputs": [
        {
          "internalType": "address",
          "name": "",
          "type": "address"
        },
        {
          "internalType": "uint256",
          "name": "",
          "type": "uint256"
        }
      ],
      "name": "userStreams",
      "outputs": [
        {
          "internalType": "address",
          "name": "user",
          "type": "address"
        },
        {
          "internalType": "address",
          "name": "receiver",
          "type": "address"
        },
        {
          "internalType": "contract ISuperToken",
          "name": "token",
          "type": "address"
        },
        {
          "internalType": "uint256",
          "name": "startTime",
          "type": "uint256"
        },
        {
          "internalType": "uint256",
          "name": "endTime",
          "type": "uint256"
        },
        {
          "internalType": "int96",
          "name": "startFlowRate",
          "type": "int96"
        },
        {
          "internalType": "int96",
          "name": "flowRate",
          "type": "int96"
        },
        {
          "internalType": "bool",
          "name": "isStarted",
          "type": "bool"
        },
        {
          "internalType": "bool",
          "name": "isUpadetd",
          "type": "bool"
        },
        {
          "internalType": "bool",
          "name": "isDeleted",
          "type": "bool"
        }
      ],
      "stateMutability": "view",
      "type": "function"
    },
    {
      "inputs": [
        {
          "internalType": "uint256",
          "name": "_amount",
          "type": "uint256"
        },
        {
          "internalType": "address",
          "name": "_token",
          "type": "address"
        }
      ],
      "name": "withdrawFunds",
      "outputs": [],
      "stateMutability": "nonpayable",
      "type": "function"
    }
  ],
  "bytecode": "0x6101206040523480156200001257600080fd5b50604051620060543803806200605483398181016040528101906200003891906200032e565b818181308173ffffffffffffffffffffffffffffffffffffffff1660808173ffffffffffffffffffffffffffffffffffffffff16815250508173ffffffffffffffffffffffffffffffffffffffff1663573ea5756040518163ffffffff1660e01b8152600401602060405180830381865afa158015620000bc573d6000803e3d6000fd5b505050506040513d601f19601f82011682018060405250810190620000e29190620003ba565b73ffffffffffffffffffffffffffffffffffffffff1660c08173ffffffffffffffffffffffffffffffffffffffff168152505073c815db16d4be6ddf2685c201937905abf338f5d773ffffffffffffffffffffffffffffffffffffffff1663ded89a7c826040518263ffffffff1660e01b8152600401620001649190620003fd565b6040805180830381865afa15801562000181573d6000803e3d6000fd5b505050506040513d601f19601f82011682018060405250810190620001a7919062000457565b508073ffffffffffffffffffffffffffffffffffffffff1660a09073ffffffffffffffffffffffffffffffffffffffff168152505050508073ffffffffffffffffffffffffffffffffffffffff1660e08173ffffffffffffffffffffffffffffffffffffffff168152505060805173ffffffffffffffffffffffffffffffffffffffff1663e60a32136040518163ffffffff1660e01b8152600401602060405180830381865afa15801562000260573d6000803e3d6000fd5b505050506040513d601f19601f82011682018060405250810190620002869190620004e3565b73ffffffffffffffffffffffffffffffffffffffff166101008173ffffffffffffffffffffffffffffffffffffffff16815250505050505062000515565b600080fd5b600073ffffffffffffffffffffffffffffffffffffffff82169050919050565b6000620002f682620002c9565b9050919050565b6200030881620002e9565b81146200031457600080fd5b50565b6000815190506200032881620002fd565b92915050565b60008060408385031215620003485762000347620002c4565b5b6000620003588582860162000317565b92505060206200036b8582860162000317565b9150509250929050565b60006200038282620002c9565b9050919050565b620003948162000375565b8114620003a057600080fd5b50565b600081519050620003b48162000389565b92915050565b600060208284031215620003d357620003d2620002c4565b5b6000620003e384828501620003a3565b91505092915050565b620003f781620002e9565b82525050565b6000602082019050620004146000830184620003ec565b92915050565b60008115159050919050565b62000431816200041a565b81146200043d57600080fd5b50565b600081519050620004518162000426565b92915050565b60008060408385031215620004715762000470620002c4565b5b6000620004818582860162000317565b9250506020620004948582860162000440565b9150509250929050565b6000620004ab82620002e9565b9050919050565b620004bd816200049e565b8114620004c957600080fd5b50565b600081519050620004dd81620004b2565b92915050565b600060208284031215620004fc57620004fb620002c4565b5b60006200050c84828501620004cc565b91505092915050565b60805160a05160c05160e05161010051615ac56200058f60003960008181611ddc0152818161327001526138fe0152600081816116d301528181611d4e0152611e18015260005050600081816108e301528181610dda01528181610dfe015261250b01526000818161089f01526132df0152615ac56000f3fe6080604052600436106101355760003560e01c80634f08690e116100ab578063af49721f1161006f578063af49721f146103e9578063b9cafa9614610412578063cf5303cf1461041c578063dbcb3afa14610448578063e60a321314610471578063ff8841521461049c57610135565b80634f08690e146103295780635752658714610340578063744bfe611461037d578063a7476493146103a6578063a81a01b4146103bd57610135565b806328f150eb116100fd57806328f150eb146102285780632967c906146102535780632f2521611461027c5780633322b23d146102a857806338e3486c146102d357806346ee3c59146102fe57610135565b8063020055f91461013a57806303aa784514610180578063049aacfe1461019757806310f8ec49146101c25780631e4e446e146101ff575b600080fd5b34801561014657600080fd5b50610161600480360381019061015c9190614076565b6104c7565b6040516101779a9998979695949392919061416a565b60405180910390f35b34801561018c57600080fd5b506101956105d9565b005b3480156101a357600080fd5b506101ac61089d565b6040516101b99190614227565b60405180910390f35b3480156101ce57600080fd5b506101e960048036038101906101e49190614242565b6108c1565b6040516101f6919061426f565b60405180910390f35b34801561020b57600080fd5b506102266004803603810190610221919061428a565b6108e1565b005b34801561023457600080fd5b5061023d610dd8565b60405161024a91906142dd565b60405180910390f35b34801561025f57600080fd5b5061027a60048036038101906102759190614076565b610dfc565b005b34801561028857600080fd5b506102916110b0565b60405161029f929190614388565b60405180910390f35b3480156102b457600080fd5b506102bd6116c5565b6040516102ca91906143d1565b60405180910390f35b3480156102df57600080fd5b506102e86116cb565b6040516102f591906143d1565b60405180910390f35b34801561030a57600080fd5b506103136116d1565b60405161032091906142dd565b60405180910390f35b34801561033557600080fd5b5061033e6116f5565b005b34801561034c57600080fd5b5061036760048036038101906103629190614242565b6119b9565b604051610374919061482d565b60405180910390f35b34801561038957600080fd5b506103a4600480360381019061039f919061484f565b611d4c565b005b3480156103b257600080fd5b506103bb611e8d565b005b3480156103c957600080fd5b506103d2612151565b6040516103e0929190614388565b60405180910390f35b3480156103f557600080fd5b50610410600480360381019061040b9190614076565b612509565b005b61041a61274c565b005b34801561042857600080fd5b5061043161276c565b60405161043f929190614388565b60405180910390f35b34801561045457600080fd5b5061046f600480360381019061046a9190614e6a565b612bc1565b005b34801561047d57600080fd5b5061048661326e565b6040516104939190614ed4565b60405180910390f35b3480156104a857600080fd5b506104b1613292565b6040516104be91906143d1565b60405180910390f35b600360205281600052604060002081815481106104e357600080fd5b90600052602060002090600a0201600091509150508060000160009054906101000a900473ffffffffffffffffffffffffffffffffffffffff16908060010160009054906101000a900473ffffffffffffffffffffffffffffffffffffffff16908060020160009054906101000a900473ffffffffffffffffffffffffffffffffffffffff16908060030154908060040154908060050160009054906101000a9004600b0b9080600501600c9054906101000a9004600b0b908060090160009054906101000a900460ff16908060090160019054906101000a900460ff16908060090160029054906101000a900460ff1690508a565b600080191660015414610621576040517f08c379a000000000000000000000000000000000000000000000000000000000815260040161061890614f4c565b60405180910390fd5b60006040518060400160405280600267ffffffffffffffff81111561064957610648614894565b5b6040519080825280602002602001820160405280156106775781602001602082028036833780820191505090505b508152602001600267ffffffffffffffff81111561069857610697614894565b5b6040519080825280602002602001820160405280156106cb57816020015b60608152602001906001900390816106b65790505b508152509050600081600001516000815181106106eb576106ea614f6c565b5b6020026020010190600381111561070557610704614f9b565b5b9081600381111561071957610718614f9b565b5b815250506002816000015160018151811061073757610736614f6c565b5b6020026020010190600381111561075157610750614f9b565b5b9081600381111561076557610764614f9b565b5b815250506107d6303073ffffffffffffffffffffffffffffffffffffffff1663a81a01b4604051602401604051602081830303815290604052915060e01b6020820180517bffffffffffffffffffffffffffffffffffffffffffffffffffffffff8381831617835250505050613298565b81602001516000815181106107ee576107ed614f6c565b5b60200260200101819052506108016132c4565b816020015160018151811061081957610818614f6c565b5b602002602001018190525060006108593063af49721f60e01b6040516020016108429190615005565b6040516020818303038152906040528460006132db565b9050806001819055507fa585557108354aa3685e5fe0424ad88ab5bcabc78119a3d599ae901ccb1999938160405161089191906143d1565b60405180910390a15050565b7f000000000000000000000000000000000000000000000000000000000000000081565b60056020528060005260406000206000915054906101000a900460ff1681565b7f000000000000000000000000000000000000000000000000000000000000000073ffffffffffffffffffffffffffffffffffffffff163373ffffffffffffffffffffffffffffffffffffffff161461096f576040517f08c379a00000000000000000000000000000000000000000000000000000000081526004016109669061506c565b60405180910390fd5b6001600360008573ffffffffffffffffffffffffffffffffffffffff1673ffffffffffffffffffffffffffffffffffffffff16815260200190815260200160002083815481106109c2576109c1614f6c565b5b90600052602060002090600a020160080182815481106109e5576109e4614f6c565b5b90600052602060002090602091828204019190066101000a81548160ff021916908315150217905550600360008473ffffffffffffffffffffffffffffffffffffffff1673ffffffffffffffffffffffffffffffffffffffff1681526020019081526020016000208281548110610a5f57610a5e614f6c565b5b90600052602060002090600a02016007018181548110610a8257610a81614f6c565b5b9060005260206000209060029182820401919006600c029054906101000a9004600b0b600360008573ffffffffffffffffffffffffffffffffffffffff1673ffffffffffffffffffffffffffffffffffffffff1681526020019081526020016000208381548110610af657610af5614f6c565b5b90600052602060002090600a0201600501600c6101000a8154816bffffffffffffffffffffffff0219169083600b0b6bffffffffffffffffffffffff1602179055506001600360008573ffffffffffffffffffffffffffffffffffffffff1673ffffffffffffffffffffffffffffffffffffffff1681526020019081526020016000208381548110610b8b57610b8a614f6c565b5b90600052602060002090600a020160060180549050610baa91906150bb565b8103610c2c576001600360008573ffffffffffffffffffffffffffffffffffffffff1673ffffffffffffffffffffffffffffffffffffffff1681526020019081526020016000208381548110610c0357610c02614f6c565b5b90600052602060002090600a020160090160016101000a81548160ff0219169083151502179055505b6000600360008573ffffffffffffffffffffffffffffffffffffffff1673ffffffffffffffffffffffffffffffffffffffff1681526020019081526020016000208381548110610c7f57610c7e614f6c565b5b90600052602060002090600a020160020160009054906101000a900473ffffffffffffffffffffffffffffffffffffffff169050610dd184600360008773ffffffffffffffffffffffffffffffffffffffff1673ffffffffffffffffffffffffffffffffffffffff1681526020019081526020016000208581548110610d0857610d07614f6c565b5b90600052602060002090600a020160010160009054906101000a900473ffffffffffffffffffffffffffffffffffffffff16600360008873ffffffffffffffffffffffffffffffffffffffff1673ffffffffffffffffffffffffffffffffffffffff1681526020019081526020016000208681548110610d8b57610d8a614f6c565b5b90600052602060002090600a0201600501600c9054906101000a9004600b0b8473ffffffffffffffffffffffffffffffffffffffff16613389909392919063ffffffff16565b5050505050565b7f000000000000000000000000000000000000000000000000000000000000000081565b7f000000000000000000000000000000000000000000000000000000000000000073ffffffffffffffffffffffffffffffffffffffff163373ffffffffffffffffffffffffffffffffffffffff1614610e8a576040517f08c379a0000000000000000000000000000000000000000000000000000000008152600401610e819061506c565b60405180910390fd5b6001600360008473ffffffffffffffffffffffffffffffffffffffff1673ffffffffffffffffffffffffffffffffffffffff1681526020019081526020016000208281548110610edd57610edc614f6c565b5b90600052602060002090600a020160090160006101000a81548160ff0219169083151502179055506000600360008473ffffffffffffffffffffffffffffffffffffffff1673ffffffffffffffffffffffffffffffffffffffff1681526020019081526020016000208281548110610f5857610f57614f6c565b5b90600052602060002090600a020160020160009054906101000a900473ffffffffffffffffffffffffffffffffffffffff1690506110aa83600360008673ffffffffffffffffffffffffffffffffffffffff1673ffffffffffffffffffffffffffffffffffffffff1681526020019081526020016000208481548110610fe157610fe0614f6c565b5b90600052602060002090600a020160010160009054906101000a900473ffffffffffffffffffffffffffffffffffffffff16600360008773ffffffffffffffffffffffffffffffffffffffff1673ffffffffffffffffffffffffffffffffffffffff168152602001908152602001600020858154811061106457611063614f6c565b5b90600052602060002090600a020160050160009054906101000a9004600b0b8473ffffffffffffffffffffffffffffffffffffffff1661353f909392919063ffffffff16565b50505050565b6000606060005b6004805490508110156116bf5760005b60036000600484815481106110df576110de614f6c565b5b9060005260206000200160009054906101000a900473ffffffffffffffffffffffffffffffffffffffff1673ffffffffffffffffffffffffffffffffffffffff1673ffffffffffffffffffffffffffffffffffffffff168152602001908152602001600020805490508110156116ab5760001515600360006004858154811061116b5761116a614f6c565b5b9060005260206000200160009054906101000a900473ffffffffffffffffffffffffffffffffffffffff1673ffffffffffffffffffffffffffffffffffffffff1673ffffffffffffffffffffffffffffffffffffffff16815260200190815260200160002082815481106111e2576111e1614f6c565b5b90600052602060002090600a020160090160029054906101000a900460ff161515036116985760001515600360006004858154811061122457611223614f6c565b5b9060005260206000200160009054906101000a900473ffffffffffffffffffffffffffffffffffffffff1673ffffffffffffffffffffffffffffffffffffffff1673ffffffffffffffffffffffffffffffffffffffff168152602001908152602001600020828154811061129b5761129a614f6c565b5b90600052602060002090600a020160090160019054906101000a900460ff161515036116975760005b60036000600485815481106112dc576112db614f6c565b5b9060005260206000200160009054906101000a900473ffffffffffffffffffffffffffffffffffffffff1673ffffffffffffffffffffffffffffffffffffffff1673ffffffffffffffffffffffffffffffffffffffff168152602001908152602001600020828154811061135357611352614f6c565b5b90600052602060002090600a0201600601805490508110156116955760001515600360006004868154811061138b5761138a614f6c565b5b9060005260206000200160009054906101000a900473ffffffffffffffffffffffffffffffffffffffff1673ffffffffffffffffffffffffffffffffffffffff1673ffffffffffffffffffffffffffffffffffffffff168152602001908152602001600020838154811061140257611401614f6c565b5b90600052602060002090600a0201600801828154811061142557611424614f6c565b5b90600052602060002090602091828204019190069054906101000a900460ff1615150361168257600360006004858154811061146457611463614f6c565b5b9060005260206000200160009054906101000a900473ffffffffffffffffffffffffffffffffffffffff1673ffffffffffffffffffffffffffffffffffffffff1673ffffffffffffffffffffffffffffffffffffffff16815260200190815260200160002082815481106114db576114da614f6c565b5b90600052602060002090600a020160060181815481106114fe576114fd614f6c565b5b906000526020600020015442119450631e4e446e60e01b600360006004868154811061152d5761152c614f6c565b5b9060005260206000200160009054906101000a900473ffffffffffffffffffffffffffffffffffffffff1673ffffffffffffffffffffffffffffffffffffffff1673ffffffffffffffffffffffffffffffffffffffff16815260200190815260200160002083815481106115a4576115a3614f6c565b5b90600052602060002090600a020160000160009054906101000a900473ffffffffffffffffffffffffffffffffffffffff1683836040516024016115ea939291906150ef565b604051602081830303815290604052907bffffffffffffffffffffffffffffffffffffffffffffffffffffffff19166020820180517bffffffffffffffffffffffffffffffffffffffffffffffffffffffff83818316178352505050509350841561165b57600194505050506116c1565b6000604051806060016040528060238152602001615a6d60239139945094505050506116c1565b808061168d90615126565b9150506112c4565b505b5b80806116a390615126565b9150506110c7565b5080806116b790615126565b9150506110b7565b505b9091565b60005481565b60025481565b7f000000000000000000000000000000000000000000000000000000000000000081565b60008019166002541461173d576040517f08c379a000000000000000000000000000000000000000000000000000000000815260040161173490614f4c565b60405180910390fd5b60006040518060400160405280600267ffffffffffffffff81111561176557611764614894565b5b6040519080825280602002602001820160405280156117935781602001602082028036833780820191505090505b508152602001600267ffffffffffffffff8111156117b4576117b3614894565b5b6040519080825280602002602001820160405280156117e757816020015b60608152602001906001900390816117d25790505b5081525090506000816000015160008151811061180757611806614f6c565b5b6020026020010190600381111561182157611820614f9b565b5b9081600381111561183557611834614f9b565b5b815250506002816000015160018151811061185357611852614f6c565b5b6020026020010190600381111561186d5761186c614f9b565b5b9081600381111561188157611880614f9b565b5b815250506118f2303073ffffffffffffffffffffffffffffffffffffffff16632f252161604051602401604051602081830303815290604052915060e01b6020820180517bffffffffffffffffffffffffffffffffffffffffffffffffffffffff8381831617835250505050613298565b816020015160008151811061190a57611909614f6c565b5b602002602001018190525061191d6132c4565b816020015160018151811061193557611934614f6c565b5b6020026020010181905250600061197530631e4e446e60e01b60405160200161195e9190615005565b6040516020818303038152906040528460006132db565b9050806002819055507fa585557108354aa3685e5fe0424ad88ab5bcabc78119a3d599ae901ccb199993816040516119ad91906143d1565b60405180910390a15050565b6060600360008373ffffffffffffffffffffffffffffffffffffffff1673ffffffffffffffffffffffffffffffffffffffff168152602001908152602001600020805480602002602001604051908101604052809291908181526020016000905b82821015611d4157838290600052602060002090600a0201604051806101a00160405290816000820160009054906101000a900473ffffffffffffffffffffffffffffffffffffffff1673ffffffffffffffffffffffffffffffffffffffff1673ffffffffffffffffffffffffffffffffffffffff1681526020016001820160009054906101000a900473ffffffffffffffffffffffffffffffffffffffff1673ffffffffffffffffffffffffffffffffffffffff1673ffffffffffffffffffffffffffffffffffffffff1681526020016002820160009054906101000a900473ffffffffffffffffffffffffffffffffffffffff1673ffffffffffffffffffffffffffffffffffffffff1673ffffffffffffffffffffffffffffffffffffffff16815260200160038201548152602001600482015481526020016005820160009054906101000a9004600b0b600b0b600b0b815260200160058201600c9054906101000a9004600b0b600b0b600b0b815260200160068201805480602002602001604051908101604052809291908181526020018280548015611bdd57602002820191906000526020600020905b815481526020019060010190808311611bc9575b5050505050815260200160078201805480602002602001604051908101604052809291908181526020018280548015611c5b57602002820191906000526020600020906000905b82829054906101000a9004600b0b600b0b815260200190600c0190602082600b01049283019260010382029150808411611c245790505b5050505050815260200160088201805480602002602001604051908101604052809291908181526020018280548015611cd857602002820191906000526020600020906000905b82829054906101000a900460ff16151581526020019060010190602082600001049283019260010382029150808411611ca25790505b505050505081526020016009820160009054906101000a900460ff161515151581526020016009820160019054906101000a900460ff161515151581526020016009820160029054906101000a900460ff16151515158152505081526020019060010190611a1a565b505050509050919050565b7f000000000000000000000000000000000000000000000000000000000000000073ffffffffffffffffffffffffffffffffffffffff163373ffffffffffffffffffffffffffffffffffffffff1614611dda576040517f08c379a0000000000000000000000000000000000000000000000000000000008152600401611dd1906151e0565b60405180910390fd5b7f000000000000000000000000000000000000000000000000000000000000000073ffffffffffffffffffffffffffffffffffffffff16631c20fadd7f000000000000000000000000000000000000000000000000000000000000000083856040518463ffffffff1660e01b8152600401611e5793929190615221565b600060405180830381600087803b158015611e7157600080fd5b505af1158015611e85573d6000803e3d6000fd5b505050505050565b600080191660005414611ed5576040517f08c379a0000000000000000000000000000000000000000000000000000000008152600401611ecc90614f4c565b60405180910390fd5b60006040518060400160405280600267ffffffffffffffff811115611efd57611efc614894565b5b604051908082528060200260200182016040528015611f2b5781602001602082028036833780820191505090505b508152602001600267ffffffffffffffff811115611f4c57611f4b614894565b5b604051908082528060200260200182016040528015611f7f57816020015b6060815260200190600190039081611f6a5790505b50815250905060008160000151600081518110611f9f57611f9e614f6c565b5b60200260200101906003811115611fb957611fb8614f9b565b5b90816003811115611fcd57611fcc614f9b565b5b8152505060028160000151600181518110611feb57611fea614f6c565b5b6020026020010190600381111561200557612004614f9b565b5b9081600381111561201957612018614f9b565b5b8152505061208a303073ffffffffffffffffffffffffffffffffffffffff1663cf5303cf604051602401604051602081830303815290604052915060e01b6020820180517bffffffffffffffffffffffffffffffffffffffffffffffffffffffff8381831617835250505050613298565b81602001516000815181106120a2576120a1614f6c565b5b60200260200101819052506120b56132c4565b81602001516001815181106120cd576120cc614f6c565b5b6020026020010181905250600061210d30632967c90660e01b6040516020016120f69190615005565b6040516020818303038152906040528460006132db565b9050806000819055507fa585557108354aa3685e5fe0424ad88ab5bcabc78119a3d599ae901ccb1999938160405161214591906143d1565b60405180910390a15050565b6000606060005b6004805490508110156125035760005b60036000600484815481106121805761217f614f6c565b5b9060005260206000200160009054906101000a900473ffffffffffffffffffffffffffffffffffffffff1673ffffffffffffffffffffffffffffffffffffffff1673ffffffffffffffffffffffffffffffffffffffff168152602001908152602001600020805490508110156124ef5760001515600360006004858154811061220c5761220b614f6c565b5b9060005260206000200160009054906101000a900473ffffffffffffffffffffffffffffffffffffffff1673ffffffffffffffffffffffffffffffffffffffff1673ffffffffffffffffffffffffffffffffffffffff168152602001908152602001600020828154811061228357612282614f6c565b5b90600052602060002090600a020160090160029054906101000a900460ff161515036124dc5760036000600484815481106122c1576122c0614f6c565b5b9060005260206000200160009054906101000a900473ffffffffffffffffffffffffffffffffffffffff1673ffffffffffffffffffffffffffffffffffffffff1673ffffffffffffffffffffffffffffffffffffffff168152602001908152602001600020818154811061233857612337614f6c565b5b90600052602060002090600a0201600401544211935063af49721f60e01b600360006004858154811061236e5761236d614f6c565b5b9060005260206000200160009054906101000a900473ffffffffffffffffffffffffffffffffffffffff1673ffffffffffffffffffffffffffffffffffffffff1673ffffffffffffffffffffffffffffffffffffffff16815260200190815260200160002082815481106123e5576123e4614f6c565b5b90600052602060002090600a020160000160009054906101000a900473ffffffffffffffffffffffffffffffffffffffff1682604051602401612429929190615258565b604051602081830303815290604052907bffffffffffffffffffffffffffffffffffffffffffffffffffffffff19166020820180517bffffffffffffffffffffffffffffffffffffffffffffffffffffffff83818316178352505050509250831561249957600193505050612505565b60006040518060400160405280602081526020017f536f6d652074696d65206c65667420746f20656e64207468652073747265616d815250935093505050612505565b80806124e790615126565b915050612168565b5080806124fb90615126565b915050612158565b505b9091565b7f000000000000000000000000000000000000000000000000000000000000000073ffffffffffffffffffffffffffffffffffffffff163373ffffffffffffffffffffffffffffffffffffffff1614612597576040517f08c379a000000000000000000000000000000000000000000000000000000000815260040161258e9061506c565b60405180910390fd5b6001600360008473ffffffffffffffffffffffffffffffffffffffff1673ffffffffffffffffffffffffffffffffffffffff16815260200190815260200160002082815481106125ea576125e9614f6c565b5b90600052602060002090600a020160090160026101000a81548160ff0219169083151502179055506000600360008473ffffffffffffffffffffffffffffffffffffffff1673ffffffffffffffffffffffffffffffffffffffff168152602001908152602001600020828154811061266557612664614f6c565b5b90600052602060002090600a020160020160009054906101000a900473ffffffffffffffffffffffffffffffffffffffff16905061274683600360008673ffffffffffffffffffffffffffffffffffffffff1673ffffffffffffffffffffffffffffffffffffffff16815260200190815260200160002084815481106126ee576126ed614f6c565b5b90600052602060002090600a020160010160009054906101000a900473ffffffffffffffffffffffffffffffffffffffff168373ffffffffffffffffffffffffffffffffffffffff166136f59092919063ffffffff16565b50505050565b61276a3473eeeeeeeeeeeeeeeeeeeeeeeeeeeeeeeeeeeeeeee6138a8565b565b6000606060005b600480549050811015612bbb5760005b600360006004848154811061279b5761279a614f6c565b5b9060005260206000200160009054906101000a900473ffffffffffffffffffffffffffffffffffffffff1673ffffffffffffffffffffffffffffffffffffffff1673ffffffffffffffffffffffffffffffffffffffff16815260200190815260200160002080549050811015612ba75760001515600360006004858154811061282757612826614f6c565b5b9060005260206000200160009054906101000a900473ffffffffffffffffffffffffffffffffffffffff1673ffffffffffffffffffffffffffffffffffffffff1673ffffffffffffffffffffffffffffffffffffffff168152602001908152602001600020828154811061289e5761289d614f6c565b5b90600052602060002090600a020160090160029054906101000a900460ff16151503612b94576000151560036000600485815481106128e0576128df614f6c565b5b9060005260206000200160009054906101000a900473ffffffffffffffffffffffffffffffffffffffff1673ffffffffffffffffffffffffffffffffffffffff1673ffffffffffffffffffffffffffffffffffffffff168152602001908152602001600020828154811061295757612956614f6c565b5b90600052602060002090600a020160090160009054906101000a900460ff16151503612b9357600360006004848154811061299557612994614f6c565b5b9060005260206000200160009054906101000a900473ffffffffffffffffffffffffffffffffffffffff1673ffffffffffffffffffffffffffffffffffffffff1673ffffffffffffffffffffffffffffffffffffffff1681526020019081526020016000208181548110612a0c57612a0b614f6c565b5b90600052602060002090600a02016003015442119350632967c90660e01b6003600060048581548110612a4257612a41614f6c565b5b9060005260206000200160009054906101000a900473ffffffffffffffffffffffffffffffffffffffff1673ffffffffffffffffffffffffffffffffffffffff1673ffffffffffffffffffffffffffffffffffffffff1681526020019081526020016000208281548110612ab957612ab8614f6c565b5b90600052602060002090600a020160000160009054906101000a900473ffffffffffffffffffffffffffffffffffffffff1682604051602401612afd929190615258565b604051602081830303815290604052907bffffffffffffffffffffffffffffffffffffffffffffffffffffffff19166020820180517bffffffffffffffffffffffffffffffffffffffffffffffffffffffff838183161783525050505092508315612b6d57600193505050612bbd565b6000604051806060016040528060258152602001615a4860259139935093505050612bbd565b5b8080612b9f90615126565b915050612783565b508080612bb390615126565b915050612773565b505b9091565b60005b8151811015612e4d57818181518110612be057612bdf614f6c565b5b602002602001015160800151828281518110612bff57612bfe614f6c565b5b60200260200101516060015110612c4b576040517f08c379a0000000000000000000000000000000000000000000000000000000008152600401612c42906152f3565b60405180910390fd5b818181518110612c5e57612c5d614f6c565b5b60200260200101516101600151612e3a5760005b6001838381518110612c8757612c86614f6c565b5b602002602001015160e0015151612c9e91906150bb565b811015612e3857828281518110612cb857612cb7614f6c565b5b602002602001015160600151838381518110612cd757612cd6614f6c565b5b602002602001015160e001518281518110612cf557612cf4614f6c565b5b6020026020010151118015612d5f5750828281518110612d1857612d17614f6c565b5b602002602001015160800151838381518110612d3757612d36614f6c565b5b602002602001015160e001518281518110612d5557612d54614f6c565b5b6020026020010151105b8015612de65750828281518110612d7957612d78614f6c565b5b602002602001015160e00151600182612d929190615313565b81518110612da357612da2614f6c565b5b6020026020010151838381518110612dbe57612dbd614f6c565b5b602002602001015160e001518281518110612ddc57612ddb614f6c565b5b6020026020010151105b612e25576040517f08c379a0000000000000000000000000000000000000000000000000000000008152600401612e1c90615393565b60405180910390fd5b8080612e3090615126565b915050612c72565b505b8080612e4590615126565b915050612bc4565b50600360003373ffffffffffffffffffffffffffffffffffffffff1673ffffffffffffffffffffffffffffffffffffffff1681526020019081526020016000206000612e999190613c18565b60005b815181101561315657600360003373ffffffffffffffffffffffffffffffffffffffff1673ffffffffffffffffffffffffffffffffffffffff168152602001908152602001600020828281518110612ef757612ef6614f6c565b5b602002602001015190806001815401808255809150506001900390600052602060002090600a020160009091909190915060008201518160000160006101000a81548173ffffffffffffffffffffffffffffffffffffffff021916908373ffffffffffffffffffffffffffffffffffffffff16021790555060208201518160010160006101000a81548173ffffffffffffffffffffffffffffffffffffffff021916908373ffffffffffffffffffffffffffffffffffffffff16021790555060408201518160020160006101000a81548173ffffffffffffffffffffffffffffffffffffffff021916908373ffffffffffffffffffffffffffffffffffffffff160217905550606082015181600301556080820151816004015560a08201518160050160006101000a8154816bffffffffffffffffffffffff0219169083600b0b6bffffffffffffffffffffffff16021790555060c082015181600501600c6101000a8154816bffffffffffffffffffffffff0219169083600b0b6bffffffffffffffffffffffff16021790555060e08201518160060190805190602001906130a1929190613c3c565b506101008201518160070190805190602001906130bf929190613c89565b506101208201518160080190805190602001906130dd929190613d54565b506101408201518160090160006101000a81548160ff0219169083151502179055506101608201518160090160016101000a81548160ff0219169083151502179055506101808201518160090160026101000a81548160ff0219169083151502179055505050808061314e90615126565b915050612e9c565b5060001515600560003373ffffffffffffffffffffffffffffffffffffffff1673ffffffffffffffffffffffffffffffffffffffff16815260200190815260200160002060009054906101000a900460ff1615150361326b576004339080600181540180825580915050600190039060005260206000200160009091909190916101000a81548173ffffffffffffffffffffffffffffffffffffffff021916908373ffffffffffffffffffffffffffffffffffffffff1602179055506001600560003373ffffffffffffffffffffffffffffffffffffffff1673ffffffffffffffffffffffffffffffffffffffff16815260200190815260200160002060006101000a81548160ff0219169083151502179055505b50565b7f000000000000000000000000000000000000000000000000000000000000000081565b60015481565b606082826040516020016132ad9291906153b3565b604051602081830303815290604052905092915050565b606060405180602001604052806000815250905090565b60007f000000000000000000000000000000000000000000000000000000000000000073ffffffffffffffffffffffffffffffffffffffff16633323b467868686866040518563ffffffff1660e01b815260040161333c949392919061562a565b6020604051808303816000875af115801561335b573d6000803e3d6000fd5b505050506040513d601f19601f8201168201806040525081019061337f91906156a9565b9050949350505050565b600080600061339787613991565b915091508173ffffffffffffffffffffffffffffffffffffffff166339255d5b828373ffffffffffffffffffffffffffffffffffffffff1663354b95908b8b8b8b600067ffffffffffffffff8111156133f3576133f2614894565b5b6040519080825280601f01601f1916602001820160405280156134255781602001600182028036833780820191505090505b5060405160240161343a9594939291906156d6565b604051602081830303815290604052915060e01b6020820180517bffffffffffffffffffffffffffffffffffffffffffffffffffffffff8381831617835250505050600067ffffffffffffffff81111561349757613496614894565b5b6040519080825280601f01601f1916602001820160405280156134c95781602001600182028036833780820191505090505b506040518463ffffffff1660e01b81526004016134e893929190615751565b6000604051808303816000875af1158015613507573d6000803e3d6000fd5b505050506040513d6000823e3d601f19601f82011682018060405250810190613530919061583c565b50600192505050949350505050565b600080600061354d87613991565b915091508173ffffffffffffffffffffffffffffffffffffffff166339255d5b828373ffffffffffffffffffffffffffffffffffffffff166394229ecb8b8b8b8b600067ffffffffffffffff8111156135a9576135a8614894565b5b6040519080825280601f01601f1916602001820160405280156135db5781602001600182028036833780820191505090505b506040516024016135f09594939291906156d6565b604051602081830303815290604052915060e01b6020820180517bffffffffffffffffffffffffffffffffffffffffffffffffffffffff8381831617835250505050600067ffffffffffffffff81111561364d5761364c614894565b5b6040519080825280601f01601f19166020018201604052801561367f5781602001600182028036833780820191505090505b506040518463ffffffff1660e01b815260040161369e93929190615751565b6000604051808303816000875af11580156136bd573d6000803e3d6000fd5b505050506040513d6000823e3d601f19601f820116820180604052508101906136e6919061583c565b50600192505050949350505050565b600080600061370386613991565b915091508173ffffffffffffffffffffffffffffffffffffffff166339255d5b828373ffffffffffffffffffffffffffffffffffffffff1663b4b333c68a8a8a600067ffffffffffffffff81111561375e5761375d614894565b5b6040519080825280601f01601f1916602001820160405280156137905781602001600182028036833780820191505090505b506040516024016137a49493929190615885565b604051602081830303815290604052915060e01b6020820180517bffffffffffffffffffffffffffffffffffffffffffffffffffffffff8381831617835250505050600067ffffffffffffffff81111561380157613800614894565b5b6040519080825280601f01601f1916602001820160405280156138335781602001600182028036833780820191505090505b506040518463ffffffff1660e01b815260040161385293929190615751565b6000604051808303816000875af1158015613871573d6000803e3d6000fd5b505050506040513d6000823e3d601f19601f8201168201806040525081019061389a919061583c565b506001925050509392505050565b600073eeeeeeeeeeeeeeeeeeeeeeeeeeeeeeeeeeeeeeee73ffffffffffffffffffffffffffffffffffffffff168273ffffffffffffffffffffffffffffffffffffffff16146138f85760006138fa565b825b90507f000000000000000000000000000000000000000000000000000000000000000073ffffffffffffffffffffffffffffffffffffffff1663c1461d57823085876040518563ffffffff1660e01b815260040161395a939291906158d1565b6000604051808303818588803b15801561397357600080fd5b505af1158015613987573d6000803e3d6000fd5b5050505050505050565b6000807f65599bf746e17a00ea62e3610586992d88101b78eec3cf380706621fb97ea8375491507fb969d79d88acd02d04ed7ee7d43b949e7daf093d363abcfbbc43dfdfd1ce969a549050600073ffffffffffffffffffffffffffffffffffffffff168173ffffffffffffffffffffffffffffffffffffffff1603613b9957600073ffffffffffffffffffffffffffffffffffffffff168273ffffffffffffffffffffffffffffffffffffffff1603613ab6578273ffffffffffffffffffffffffffffffffffffffff166320bc44256040518163ffffffff1660e01b8152600401602060405180830381865afa158015613a8f573d6000803e3d6000fd5b505050506040513d601f19601f82011682018060405250810190613ab3919061591d565b91505b8173ffffffffffffffffffffffffffffffffffffffff1663b6d200de7fa9214cc96615e0085d3bb077758db69497dc2dce3b2b1e97bc93c3d18d83efd36040518263ffffffff1660e01b8152600401613b0f9190615992565b602060405180830381865afa158015613b2c573d6000803e3d6000fd5b505050506040513d601f19601f82011682018060405250810190613b5091906159eb565b9050817f65599bf746e17a00ea62e3610586992d88101b78eec3cf380706621fb97ea83755807fb969d79d88acd02d04ed7ee7d43b949e7daf093d363abcfbbc43dfdfd1ce969a555b600073ffffffffffffffffffffffffffffffffffffffff168273ffffffffffffffffffffffffffffffffffffffff1603613bd657613bd5615a18565b5b600073ffffffffffffffffffffffffffffffffffffffff168173ffffffffffffffffffffffffffffffffffffffff1603613c1357613c12615a18565b5b915091565b50805460008255600a0290600052602060002090810190613c399190613dfa565b50565b828054828255906000526020600020908101928215613c78579160200282015b82811115613c77578251825591602001919060010190613c5c565b5b509050613c859190613f40565b5090565b82805482825590600052602060002090600101600290048101928215613d435791602002820160005b83821115613d0957835183826101000a8154816bffffffffffffffffffffffff0219169083600b0b6bffffffffffffffffffffffff1602179055509260200192600c01602081600b01049283019260010302613cb2565b8015613d415782816101000a8154906bffffffffffffffffffffffff0219169055600c01602081600b01049283019260010302613d09565b505b509050613d509190613f40565b5090565b82805482825590600052602060002090601f01602090048101928215613de95791602002820160005b83821115613dba57835183826101000a81548160ff0219169083151502179055509260200192600101602081600001049283019260010302613d7d565b8015613de75782816101000a81549060ff0219169055600101602081600001049283019260010302613dba565b505b509050613df69190613f40565b5090565b5b80821115613f3c57600080820160006101000a81549073ffffffffffffffffffffffffffffffffffffffff02191690556001820160006101000a81549073ffffffffffffffffffffffffffffffffffffffff02191690556002820160006101000a81549073ffffffffffffffffffffffffffffffffffffffff0219169055600382016000905560048201600090556005820160006101000a8154906bffffffffffffffffffffffff021916905560058201600c6101000a8154906bffffffffffffffffffffffff0219169055600682016000613ed79190613f5d565b600782016000613ee79190613f7e565b600882016000613ef79190613fa6565b6009820160006101000a81549060ff02191690556009820160016101000a81549060ff02191690556009820160026101000a81549060ff021916905550600a01613dfb565b5090565b5b80821115613f59576000816000905550600101613f41565b5090565b5080546000825590600052602060002090810190613f7b9190613f40565b50565b508054600082556001016002900490600052602060002090810190613fa39190613f40565b50565b50805460008255601f016020900490600052602060002090810190613fcb9190613f40565b50565b6000604051905090565b600080fd5b600080fd5b600073ffffffffffffffffffffffffffffffffffffffff82169050919050565b600061400d82613fe2565b9050919050565b61401d81614002565b811461402857600080fd5b50565b60008135905061403a81614014565b92915050565b6000819050919050565b61405381614040565b811461405e57600080fd5b50565b6000813590506140708161404a565b92915050565b6000806040838503121561408d5761408c613fd8565b5b600061409b8582860161402b565b92505060206140ac85828601614061565b9150509250929050565b6140bf81614002565b82525050565b6000819050919050565b60006140ea6140e56140e084613fe2565b6140c5565b613fe2565b9050919050565b60006140fc826140cf565b9050919050565b600061410e826140f1565b9050919050565b61411e81614103565b82525050565b61412d81614040565b82525050565b600081600b0b9050919050565b61414981614133565b82525050565b60008115159050919050565b6141648161414f565b82525050565b600061014082019050614180600083018d6140b6565b61418d602083018c6140b6565b61419a604083018b614115565b6141a7606083018a614124565b6141b46080830189614124565b6141c160a0830188614140565b6141ce60c0830187614140565b6141db60e083018661415b565b6141e961010083018561415b565b6141f761012083018461415b565b9b9a5050505050505050505050565b6000614211826140f1565b9050919050565b61422181614206565b82525050565b600060208201905061423c6000830184614218565b92915050565b60006020828403121561425857614257613fd8565b5b60006142668482850161402b565b91505092915050565b6000602082019050614284600083018461415b565b92915050565b6000806000606084860312156142a3576142a2613fd8565b5b60006142b18682870161402b565b93505060206142c286828701614061565b92505060406142d386828701614061565b9150509250925092565b60006020820190506142f260008301846140b6565b92915050565b600081519050919050565b600082825260208201905092915050565b60005b83811015614332578082015181840152602081019050614317565b60008484015250505050565b6000601f19601f8301169050919050565b600061435a826142f8565b6143648185614303565b9350614374818560208601614314565b61437d8161433e565b840191505092915050565b600060408201905061439d600083018561415b565b81810360208301526143af818461434f565b90509392505050565b6000819050919050565b6143cb816143b8565b82525050565b60006020820190506143e660008301846143c2565b92915050565b600081519050919050565b600082825260208201905092915050565b6000819050602082019050919050565b61442181614002565b82525050565b61443081614103565b82525050565b61443f81614040565b82525050565b61444e81614133565b82525050565b600081519050919050565b600082825260208201905092915050565b6000819050602082019050919050565b600061448c8383614436565b60208301905092915050565b6000602082019050919050565b60006144b082614454565b6144ba818561445f565b93506144c583614470565b8060005b838110156144f65781516144dd8882614480565b97506144e883614498565b9250506001810190506144c9565b5085935050505092915050565b600081519050919050565b600082825260208201905092915050565b6000819050602082019050919050565b600061453b8383614445565b60208301905092915050565b6000602082019050919050565b600061455f82614503565b614569818561450e565b93506145748361451f565b8060005b838110156145a557815161458c888261452f565b975061459783614547565b925050600181019050614578565b5085935050505092915050565b600081519050919050565b600082825260208201905092915050565b6000819050602082019050919050565b6145e78161414f565b82525050565b60006145f983836145de565b60208301905092915050565b6000602082019050919050565b600061461d826145b2565b61462781856145bd565b9350614632836145ce565b8060005b8381101561466357815161464a88826145ed565b975061465583614605565b925050600181019050614636565b5085935050505092915050565b60006101a0830160008301516146896000860182614418565b50602083015161469c6020860182614418565b5060408301516146af6040860182614427565b5060608301516146c26060860182614436565b5060808301516146d56080860182614436565b5060a08301516146e860a0860182614445565b5060c08301516146fb60c0860182614445565b5060e083015184820360e086015261471382826144a5565b91505061010083015184820361010086015261472f8282614554565b91505061012083015184820361012086015261474b8282614612565b9150506101408301516147626101408601826145de565b506101608301516147776101608601826145de565b5061018083015161478c6101808601826145de565b508091505092915050565b60006147a38383614670565b905092915050565b6000602082019050919050565b60006147c3826143ec565b6147cd81856143f7565b9350836020820285016147df85614408565b8060005b8581101561481b57848403895281516147fc8582614797565b9450614807836147ab565b925060208a019950506001810190506147e3565b50829750879550505050505092915050565b6000602082019050818103600083015261484781846147b8565b905092915050565b6000806040838503121561486657614865613fd8565b5b600061487485828601614061565b92505060206148858582860161402b565b9150509250929050565b600080fd5b7f4e487b7100000000000000000000000000000000000000000000000000000000600052604160045260246000fd5b6148cc8261433e565b810181811067ffffffffffffffff821117156148eb576148ea614894565b5b80604052505050565b60006148fe613fce565b905061490a82826148c3565b919050565b600067ffffffffffffffff82111561492a57614929614894565b5b602082029050602081019050919050565b600080fd5b600080fd5b600080fd5b600061495582614002565b9050919050565b6149658161494a565b811461497057600080fd5b50565b6000813590506149828161495c565b92915050565b61499181614133565b811461499c57600080fd5b50565b6000813590506149ae81614988565b92915050565b600067ffffffffffffffff8211156149cf576149ce614894565b5b602082029050602081019050919050565b60006149f36149ee846149b4565b6148f4565b90508083825260208201905060208402830185811115614a1657614a1561493b565b5b835b81811015614a3f5780614a2b8882614061565b845260208401935050602081019050614a18565b5050509392505050565b600082601f830112614a5e57614a5d61488f565b5b8135614a6e8482602086016149e0565b91505092915050565b600067ffffffffffffffff821115614a9257614a91614894565b5b602082029050602081019050919050565b6000614ab6614ab184614a77565b6148f4565b90508083825260208201905060208402830185811115614ad957614ad861493b565b5b835b81811015614b025780614aee888261499f565b845260208401935050602081019050614adb565b5050509392505050565b600082601f830112614b2157614b2061488f565b5b8135614b31848260208601614aa3565b91505092915050565b600067ffffffffffffffff821115614b5557614b54614894565b5b602082029050602081019050919050565b614b6f8161414f565b8114614b7a57600080fd5b50565b600081359050614b8c81614b66565b92915050565b6000614ba5614ba084614b3a565b6148f4565b90508083825260208201905060208402830185811115614bc857614bc761493b565b5b835b81811015614bf15780614bdd8882614b7d565b845260208401935050602081019050614bca565b5050509392505050565b600082601f830112614c1057614c0f61488f565b5b8135614c20848260208601614b92565b91505092915050565b60006101a08284031215614c4057614c3f614940565b5b614c4b6101a06148f4565b90506000614c5b8482850161402b565b6000830152506020614c6f8482850161402b565b6020830152506040614c8384828501614973565b6040830152506060614c9784828501614061565b6060830152506080614cab84828501614061565b60808301525060a0614cbf8482850161499f565b60a08301525060c0614cd38482850161499f565b60c08301525060e082013567ffffffffffffffff811115614cf757614cf6614945565b5b614d0384828501614a49565b60e08301525061010082013567ffffffffffffffff811115614d2857614d27614945565b5b614d3484828501614b0c565b6101008301525061012082013567ffffffffffffffff811115614d5a57614d59614945565b5b614d6684828501614bfb565b61012083015250610140614d7c84828501614b7d565b61014083015250610160614d9284828501614b7d565b61016083015250610180614da884828501614b7d565b6101808301525092915050565b6000614dc8614dc38461490f565b6148f4565b90508083825260208201905060208402830185811115614deb57614dea61493b565b5b835b81811015614e3257803567ffffffffffffffff811115614e1057614e0f61488f565b5b808601614e1d8982614c29565b85526020850194505050602081019050614ded565b5050509392505050565b600082601f830112614e5157614e5061488f565b5b8135614e61848260208601614db5565b91505092915050565b600060208284031215614e8057614e7f613fd8565b5b600082013567ffffffffffffffff811115614e9e57614e9d613fdd565b5b614eaa84828501614e3c565b91505092915050565b6000614ebe826140f1565b9050919050565b614ece81614eb3565b82525050565b6000602082019050614ee96000830184614ec5565b92915050565b600082825260208201905092915050565b7f416c72656164792073746172746564207461736b000000000000000000000000600082015250565b6000614f36601483614eef565b9150614f4182614f00565b602082019050919050565b60006020820190508181036000830152614f6581614f29565b9050919050565b7f4e487b7100000000000000000000000000000000000000000000000000000000600052603260045260246000fd5b7f4e487b7100000000000000000000000000000000000000000000000000000000600052602160045260246000fd5b60007fffffffff0000000000000000000000000000000000000000000000000000000082169050919050565b614fff81614fca565b82525050565b600060208201905061501a6000830184614ff6565b92915050565b7f4f6e6c7920646564696361746564206d73672e73656e64657200000000000000600082015250565b6000615056601983614eef565b915061506182615020565b602082019050919050565b6000602082019050818103600083015261508581615049565b9050919050565b7f4e487b7100000000000000000000000000000000000000000000000000000000600052601160045260246000fd5b60006150c682614040565b91506150d183614040565b92508282039050818111156150e9576150e861508c565b5b92915050565b600060608201905061510460008301866140b6565b6151116020830185614124565b61511e6040830184614124565b949350505050565b600061513182614040565b91507fffffffffffffffffffffffffffffffffffffffffffffffffffffffffffffffff82036151635761516261508c565b5b600182019050919050565b7f4f6e6c792066756e6473206f776e65722063616e20776974686472617720667560008201527f6e64730000000000000000000000000000000000000000000000000000000000602082015250565b60006151ca602383614eef565b91506151d58261516e565b604082019050919050565b600060208201905081810360008301526151f9816151bd565b9050919050565b600061520b82613fe2565b9050919050565b61521b81615200565b82525050565b60006060820190506152366000830186615212565b61524360208301856140b6565b6152506040830184614124565b949350505050565b600060408201905061526d60008301856140b6565b61527a6020830184614124565b9392505050565b7f53746172742074696d652073686f756c64206265206c657373207468616e207460008201527f686520656e642074696d65000000000000000000000000000000000000000000602082015250565b60006152dd602b83614eef565b91506152e882615281565b604082019050919050565b6000602082019050818103600083015261530c816152d0565b9050919050565b600061531e82614040565b915061532983614040565b92508282019050808211156153415761534061508c565b5b92915050565b7f456e6574722070726f7065722074696d657374616d7000000000000000000000600082015250565b600061537d601683614eef565b915061538882615347565b602082019050919050565b600060208201905081810360008301526153ac81615370565b9050919050565b60006040820190506153c860008301856140b6565b81810360208301526153da818461434f565b90509392505050565b600081519050919050565b600082825260208201905092915050565b6000819050602082019050919050565b600481106154205761541f614f9b565b5b50565b60008190506154318261540f565b919050565b600061544182615423565b9050919050565b61545181615436565b82525050565b60006154638383615448565b60208301905092915050565b6000602082019050919050565b6000615487826153e3565b61549181856153ee565b935061549c836153ff565b8060005b838110156154cd5781516154b48882615457565b97506154bf8361546f565b9250506001810190506154a0565b5085935050505092915050565b600081519050919050565b600082825260208201905092915050565b6000819050602082019050919050565b600082825260208201905092915050565b6000615522826142f8565b61552c8185615506565b935061553c818560208601614314565b6155458161433e565b840191505092915050565b600061555c8383615517565b905092915050565b6000602082019050919050565b600061557c826154da565b61558681856154e5565b935083602082028501615598856154f6565b8060005b858110156155d457848403895281516155b58582615550565b94506155c083615564565b925060208a0199505060018101905061559c565b50829750879550505050505092915050565b60006040830160008301518482036000860152615603828261547c565b9150506020830151848203602086015261561d8282615571565b9150508091505092915050565b600060808201905061563f60008301876140b6565b8181036020830152615651818661434f565b9050818103604083015261566581856155e6565b905061567460608301846140b6565b95945050505050565b615686816143b8565b811461569157600080fd5b50565b6000815190506156a38161567d565b92915050565b6000602082840312156156bf576156be613fd8565b5b60006156cd84828501615694565b91505092915050565b600060a0820190506156eb6000830188614115565b6156f860208301876140b6565b61570560408301866140b6565b6157126060830185614140565b8181036080830152615724818461434f565b90509695505050505050565b600061573b826140f1565b9050919050565b61574b81615730565b82525050565b60006060820190506157666000830186615742565b8181036020830152615778818561434f565b9050818103604083015261578c818461434f565b9050949350505050565b600080fd5b600067ffffffffffffffff8211156157b6576157b5614894565b5b6157bf8261433e565b9050602081019050919050565b60006157df6157da8461579b565b6148f4565b9050828152602081018484840111156157fb576157fa615796565b5b615806848285614314565b509392505050565b600082601f8301126158235761582261488f565b5b81516158338482602086016157cc565b91505092915050565b60006020828403121561585257615851613fd8565b5b600082015167ffffffffffffffff8111156158705761586f613fdd565b5b61587c8482850161580e565b91505092915050565b600060808201905061589a6000830187614115565b6158a760208301866140b6565b6158b460408301856140b6565b81810360608301526158c6818461434f565b905095945050505050565b60006060820190506158e660008301866140b6565b6158f360208301856140b6565b6159006040830184614124565b949350505050565b60008151905061591781614014565b92915050565b60006020828403121561593357615932613fd8565b5b600061594184828501615908565b91505092915050565b6000819050919050565b60008160001b9050919050565b600061597c6159776159728461594a565b615954565b6143b8565b9050919050565b61598c81615961565b82525050565b60006020820190506159a76000830184615983565b92915050565b60006159b882614002565b9050919050565b6159c8816159ad565b81146159d357600080fd5b50565b6000815190506159e5816159bf565b92915050565b600060208284031215615a0157615a00613fd8565b5b6000615a0f848285016159d6565b91505092915050565b7f4e487b7100000000000000000000000000000000000000000000000000000000600052600160045260246000fdfe536f6d652074696d65206973206c65667420746f207374617274207468652073747265616d536f6d652074696d65206c65667420746f20757064617465207468652073747265616da2646970667358221220102dfb367e7bb5ef941fb8c4bab9012b79145de3d38dac03e3adb92f70a5651d64736f6c63430008120033",
  "linkReferences": {},
  "deployedLinkReferences": {}
}