{
  "_format": "hh-sol-artifact-1",
  "contractName": "Trial",
  "sourceName": "contracts/Trial.sol",
  "abi": [
    {
      "inputs": [
        {
          "internalType": "address",
          "name": "_automate",
          "type": "address"
        },
        {
          "internalType": "address",
          "name": "_fundsOwner",
          "type": "address"
        }
      ],
      "stateMutability": "nonpayable",
      "type": "constructor"
    },
    {
      "anonymous": false,
      "inputs": [
        {
          "indexed": false,
          "internalType": "bytes32",
          "name": "taskId",
          "type": "bytes32"
        }
      ],
      "name": "CounterTaskCreated",
      "type": "event"
    },
    {
      "inputs": [],
      "name": "automate",
      "outputs": [
        {
          "internalType": "contract IAutomate",
          "name": "",
          "type": "address"
        }
      ],
      "stateMutability": "view",
      "type": "function"
    },
    {
      "inputs": [],
      "name": "checker",
      "outputs": [
        {
          "internalType": "bool",
          "name": "canExec",
          "type": "bool"
        },
        {
          "internalType": "bytes",
          "name": "execPayload",
          "type": "bytes"
        }
      ],
      "stateMutability": "view",
      "type": "function"
    },
    {
      "inputs": [],
      "name": "checker1",
      "outputs": [
        {
          "internalType": "bool",
          "name": "canExec",
          "type": "bool"
        },
        {
          "internalType": "bytes",
          "name": "execPayload",
          "type": "bytes"
        }
      ],
      "stateMutability": "view",
      "type": "function"
    },
    {
      "inputs": [],
      "name": "checker2",
      "outputs": [
        {
          "internalType": "bool",
          "name": "canExec",
          "type": "bool"
        },
        {
          "internalType": "bytes",
          "name": "execPayload",
          "type": "bytes"
        }
      ],
      "stateMutability": "view",
      "type": "function"
    },
    {
      "inputs": [
        {
          "internalType": "address",
          "name": "_sender",
          "type": "address"
        },
        {
          "internalType": "uint256",
          "name": "j",
          "type": "uint256"
        }
      ],
      "name": "createFlowIntoContract",
      "outputs": [],
      "stateMutability": "nonpayable",
      "type": "function"
    },
    {
      "inputs": [],
      "name": "createTask",
      "outputs": [],
      "stateMutability": "nonpayable",
      "type": "function"
    },
    {
      "inputs": [],
      "name": "createTask1",
      "outputs": [],
      "stateMutability": "nonpayable",
      "type": "function"
    },
    {
      "inputs": [],
      "name": "createTask2",
      "outputs": [],
      "stateMutability": "nonpayable",
      "type": "function"
    },
    {
      "inputs": [],
      "name": "dedicatedMsgSender",
      "outputs": [
        {
          "internalType": "address",
          "name": "",
          "type": "address"
        }
      ],
      "stateMutability": "view",
      "type": "function"
    },
    {
      "inputs": [
        {
          "internalType": "address",
          "name": "_sender",
          "type": "address"
        },
        {
          "internalType": "uint256",
          "name": "j",
          "type": "uint256"
        }
      ],
      "name": "deleteFlowIntoContract",
      "outputs": [],
      "stateMutability": "nonpayable",
      "type": "function"
    },
    {
      "inputs": [],
      "name": "depositForCounter",
      "outputs": [],
      "stateMutability": "payable",
      "type": "function"
    },
    {
      "inputs": [
        {
          "internalType": "uint256",
          "name": "i",
          "type": "uint256"
        },
        {
          "components": [
            {
              "internalType": "address",
              "name": "user",
              "type": "address"
            },
            {
              "internalType": "address",
              "name": "receiver",
              "type": "address"
            },
            {
              "internalType": "contract ISuperToken",
              "name": "token",
              "type": "address"
            },
            {
              "internalType": "uint256",
              "name": "startTime",
              "type": "uint256"
            },
            {
              "internalType": "uint256",
              "name": "endTime",
              "type": "uint256"
            },
            {
              "internalType": "int96",
              "name": "startFlowRate",
              "type": "int96"
            },
            {
              "internalType": "int96",
              "name": "flowRate",
              "type": "int96"
            },
            {
              "internalType": "uint256[]",
              "name": "updateTime",
              "type": "uint256[]"
            },
            {
              "internalType": "int96[]",
              "name": "updateFlowRate",
              "type": "int96[]"
            },
            {
              "internalType": "bool[]",
              "name": "isFlowUpdated",
              "type": "bool[]"
            },
            {
              "internalType": "bool",
              "name": "isStarted",
              "type": "bool"
            },
            {
              "internalType": "bool",
              "name": "isUpadetd",
              "type": "bool"
            },
            {
              "internalType": "bool",
              "name": "isDeleted",
              "type": "bool"
            },
            {
              "internalType": "bool",
              "name": "isScheduled",
              "type": "bool"
            }
          ],
          "internalType": "struct Trial.StreamDetails",
          "name": "data",
          "type": "tuple"
        }
      ],
      "name": "editUserStreams",
      "outputs": [],
      "stateMutability": "nonpayable",
      "type": "function"
    },
    {
      "inputs": [],
      "name": "fundsOwner",
      "outputs": [
        {
          "internalType": "address",
          "name": "",
          "type": "address"
        }
      ],
      "stateMutability": "view",
      "type": "function"
    },
    {
      "inputs": [
        {
          "internalType": "address",
          "name": "_user",
          "type": "address"
        }
      ],
      "name": "getAllUserStreams",
      "outputs": [
        {
          "components": [
            {
              "internalType": "address",
              "name": "user",
              "type": "address"
            },
            {
              "internalType": "address",
              "name": "receiver",
              "type": "address"
            },
            {
              "internalType": "contract ISuperToken",
              "name": "token",
              "type": "address"
            },
            {
              "internalType": "uint256",
              "name": "startTime",
              "type": "uint256"
            },
            {
              "internalType": "uint256",
              "name": "endTime",
              "type": "uint256"
            },
            {
              "internalType": "int96",
              "name": "startFlowRate",
              "type": "int96"
            },
            {
              "internalType": "int96",
              "name": "flowRate",
              "type": "int96"
            },
            {
              "internalType": "uint256[]",
              "name": "updateTime",
              "type": "uint256[]"
            },
            {
              "internalType": "int96[]",
              "name": "updateFlowRate",
              "type": "int96[]"
            },
            {
              "internalType": "bool[]",
              "name": "isFlowUpdated",
              "type": "bool[]"
            },
            {
              "internalType": "bool",
              "name": "isStarted",
              "type": "bool"
            },
            {
              "internalType": "bool",
              "name": "isUpadetd",
              "type": "bool"
            },
            {
              "internalType": "bool",
              "name": "isDeleted",
              "type": "bool"
            },
            {
              "internalType": "bool",
              "name": "isScheduled",
              "type": "bool"
            }
          ],
          "internalType": "struct Trial.StreamDetails[]",
          "name": "",
          "type": "tuple[]"
        }
      ],
      "stateMutability": "view",
      "type": "function"
    },
    {
      "inputs": [],
      "name": "getAllUsers",
      "outputs": [
        {
          "internalType": "address[]",
          "name": "",
          "type": "address[]"
        }
      ],
      "stateMutability": "view",
      "type": "function"
    },
    {
      "inputs": [
        {
          "internalType": "address",
          "name": "",
          "type": "address"
        }
      ],
      "name": "isUserAdded",
      "outputs": [
        {
          "internalType": "bool",
          "name": "",
          "type": "bool"
        }
      ],
      "stateMutability": "view",
      "type": "function"
    },
    {
      "inputs": [
        {
          "components": [
            {
              "internalType": "address",
              "name": "user",
              "type": "address"
            },
            {
              "internalType": "address",
              "name": "receiver",
              "type": "address"
            },
            {
              "internalType": "contract ISuperToken",
              "name": "token",
              "type": "address"
            },
            {
              "internalType": "uint256",
              "name": "startTime",
              "type": "uint256"
            },
            {
              "internalType": "uint256",
              "name": "endTime",
              "type": "uint256"
            },
            {
              "internalType": "int96",
              "name": "startFlowRate",
              "type": "int96"
            },
            {
              "internalType": "int96",
              "name": "flowRate",
              "type": "int96"
            },
            {
              "internalType": "uint256[]",
              "name": "updateTime",
              "type": "uint256[]"
            },
            {
              "internalType": "int96[]",
              "name": "updateFlowRate",
              "type": "int96[]"
            },
            {
              "internalType": "bool[]",
              "name": "isFlowUpdated",
              "type": "bool[]"
            },
            {
              "internalType": "bool",
              "name": "isStarted",
              "type": "bool"
            },
            {
              "internalType": "bool",
              "name": "isUpadetd",
              "type": "bool"
            },
            {
              "internalType": "bool",
              "name": "isDeleted",
              "type": "bool"
            },
            {
              "internalType": "bool",
              "name": "isScheduled",
              "type": "bool"
            }
          ],
          "internalType": "struct Trial.StreamDetails",
          "name": "data",
          "type": "tuple"
        }
      ],
      "name": "scheduleStream",
      "outputs": [],
      "stateMutability": "nonpayable",
      "type": "function"
    },
    {
      "inputs": [],
      "name": "taskId",
      "outputs": [
        {
          "internalType": "bytes32",
          "name": "",
          "type": "bytes32"
        }
      ],
      "stateMutability": "view",
      "type": "function"
    },
    {
      "inputs": [],
      "name": "taskId1",
      "outputs": [
        {
          "internalType": "bytes32",
          "name": "",
          "type": "bytes32"
        }
      ],
      "stateMutability": "view",
      "type": "function"
    },
    {
      "inputs": [],
      "name": "taskId2",
      "outputs": [
        {
          "internalType": "bytes32",
          "name": "",
          "type": "bytes32"
        }
      ],
      "stateMutability": "view",
      "type": "function"
    },
    {
      "inputs": [],
      "name": "taskTreasury",
      "outputs": [
        {
          "internalType": "contract ITaskTreasuryUpgradable",
          "name": "",
          "type": "address"
        }
      ],
      "stateMutability": "view",
      "type": "function"
    },
    {
      "inputs": [
        {
          "internalType": "address",
          "name": "_sender",
          "type": "address"
        },
        {
          "internalType": "uint256",
          "name": "j",
          "type": "uint256"
        },
        {
          "internalType": "uint256",
          "name": "k",
          "type": "uint256"
        }
      ],
      "name": "updateFlowIntoContract",
      "outputs": [],
      "stateMutability": "nonpayable",
      "type": "function"
    },
    {
      "inputs": [
        {
          "internalType": "address",
          "name": "",
          "type": "address"
        },
        {
          "internalType": "uint256",
          "name": "",
          "type": "uint256"
        }
      ],
      "name": "userStreams",
      "outputs": [
        {
          "internalType": "address",
          "name": "user",
          "type": "address"
        },
        {
          "internalType": "address",
          "name": "receiver",
          "type": "address"
        },
        {
          "internalType": "contract ISuperToken",
          "name": "token",
          "type": "address"
        },
        {
          "internalType": "uint256",
          "name": "startTime",
          "type": "uint256"
        },
        {
          "internalType": "uint256",
          "name": "endTime",
          "type": "uint256"
        },
        {
          "internalType": "int96",
          "name": "startFlowRate",
          "type": "int96"
        },
        {
          "internalType": "int96",
          "name": "flowRate",
          "type": "int96"
        },
        {
          "internalType": "bool",
          "name": "isStarted",
          "type": "bool"
        },
        {
          "internalType": "bool",
          "name": "isUpadetd",
          "type": "bool"
        },
        {
          "internalType": "bool",
          "name": "isDeleted",
          "type": "bool"
        },
        {
          "internalType": "bool",
          "name": "isScheduled",
          "type": "bool"
        }
      ],
      "stateMutability": "view",
      "type": "function"
    },
    {
      "inputs": [
        {
          "internalType": "uint256",
          "name": "_amount",
          "type": "uint256"
        },
        {
          "internalType": "address",
          "name": "_token",
          "type": "address"
        }
      ],
      "name": "withdrawFunds",
      "outputs": [],
      "stateMutability": "nonpayable",
      "type": "function"
    }
  ],
  "bytecode": "0x6101206040523480156200001257600080fd5b50604051620061bc380380620061bc83398181016040528101906200003891906200032e565b818181308173ffffffffffffffffffffffffffffffffffffffff1660808173ffffffffffffffffffffffffffffffffffffffff16815250508173ffffffffffffffffffffffffffffffffffffffff1663573ea5756040518163ffffffff1660e01b8152600401602060405180830381865afa158015620000bc573d6000803e3d6000fd5b505050506040513d601f19601f82011682018060405250810190620000e29190620003ba565b73ffffffffffffffffffffffffffffffffffffffff1660c08173ffffffffffffffffffffffffffffffffffffffff168152505073c815db16d4be6ddf2685c201937905abf338f5d773ffffffffffffffffffffffffffffffffffffffff1663ded89a7c826040518263ffffffff1660e01b8152600401620001649190620003fd565b6040805180830381865afa15801562000181573d6000803e3d6000fd5b505050506040513d601f19601f82011682018060405250810190620001a7919062000457565b508073ffffffffffffffffffffffffffffffffffffffff1660a09073ffffffffffffffffffffffffffffffffffffffff168152505050508073ffffffffffffffffffffffffffffffffffffffff1660e08173ffffffffffffffffffffffffffffffffffffffff168152505060805173ffffffffffffffffffffffffffffffffffffffff1663e60a32136040518163ffffffff1660e01b8152600401602060405180830381865afa15801562000260573d6000803e3d6000fd5b505050506040513d601f19601f82011682018060405250810190620002869190620004e3565b73ffffffffffffffffffffffffffffffffffffffff166101008173ffffffffffffffffffffffffffffffffffffffff16815250505050505062000515565b600080fd5b600073ffffffffffffffffffffffffffffffffffffffff82169050919050565b6000620002f682620002c9565b9050919050565b6200030881620002e9565b81146200031457600080fd5b50565b6000815190506200032881620002fd565b92915050565b60008060408385031215620003485762000347620002c4565b5b6000620003588582860162000317565b92505060206200036b8582860162000317565b9150509250929050565b60006200038282620002c9565b9050919050565b620003948162000375565b8114620003a057600080fd5b50565b600081519050620003b48162000389565b92915050565b600060208284031215620003d357620003d2620002c4565b5b6000620003e384828501620003a3565b91505092915050565b620003f781620002e9565b82525050565b6000602082019050620004146000830184620003ec565b92915050565b60008115159050919050565b62000431816200041a565b81146200043d57600080fd5b50565b600081519050620004518162000426565b92915050565b60008060408385031215620004715762000470620002c4565b5b6000620004818582860162000317565b9250506020620004948582860162000440565b9150509250929050565b6000620004ab82620002e9565b9050919050565b620004bd816200049e565b8114620004c957600080fd5b50565b600081519050620004dd81620004b2565b92915050565b600060208284031215620004fc57620004fb620002c4565b5b60006200050c84828501620004cc565b91505092915050565b60805160a05160c05160e05161010051615c2d6200058f6000396000818161260e0152818161352d0152613bbb0152600081816115a301528181612580015261264a0152600050506000818161096101528181610d6401528181610d880152612de701526000818161091d015261359c0152615c2d6000f3fe60806040526004361061014b5760003560e01c806352585921116100b6578063af49721f1161006f578063af49721f14610452578063b9cafa961461047b578063cf5303cf14610485578063e2842d79146104b1578063e60a3213146104dc578063ff884152146105075761014b565b80635258592114610357578063575265871461038057806363f45244146103bd578063744bfe61146103e6578063a74764931461040f578063a81a01b4146104265761014b565b80632967c906116101085780632967c9061461026a5780632f252161146102935780633322b23d146102bf57806338e3486c146102ea57806346ee3c59146103155780634f08690e146103405761014b565b8063020055f91461015057806303aa784514610197578063049aacfe146101ae57806310f8ec49146101d95780631e4e446e1461021657806328f150eb1461023f575b600080fd5b34801561015c57600080fd5b5061017760048036038101906101729190614158565b610532565b60405161018e9b9a9998979695949392919061424c565b60405180910390f35b3480156101a357600080fd5b506101ac610657565b005b3480156101ba57600080fd5b506101c361091b565b6040516101d09190614318565b60405180910390f35b3480156101e557600080fd5b5061020060048036038101906101fb9190614333565b61093f565b60405161020d9190614360565b60405180910390f35b34801561022257600080fd5b5061023d6004803603810190610238919061437b565b61095f565b005b34801561024b57600080fd5b50610254610d62565b60405161026191906143ce565b60405180910390f35b34801561027657600080fd5b50610291600480360381019061028c9190614158565b610d86565b005b34801561029f57600080fd5b506102a861103a565b6040516102b6929190614479565b60405180910390f35b3480156102cb57600080fd5b506102d4611595565b6040516102e191906144c2565b60405180910390f35b3480156102f657600080fd5b506102ff61159b565b60405161030c91906144c2565b60405180910390f35b34801561032157600080fd5b5061032a6115a1565b60405161033791906143ce565b60405180910390f35b34801561034c57600080fd5b506103556115c5565b005b34801561036357600080fd5b5061037e600480360381019061037991906149ed565b611889565b005b34801561038c57600080fd5b506103a760048036038101906103a29190614333565b611c9f565b6040516103b49190614e9f565b60405180910390f35b3480156103c957600080fd5b506103e460048036038101906103df9190614ec1565b61204d565b005b3480156103f257600080fd5b5061040d60048036038101906104089190614f0a565b61257e565b005b34801561041b57600080fd5b506104246126bf565b005b34801561043257600080fd5b5061043b612983565b604051610449929190614479565b60405180910390f35b34801561045e57600080fd5b5061047960048036038101906104749190614158565b612de5565b005b610483613028565b005b34801561049157600080fd5b5061049a613048565b6040516104a8929190614479565b60405180910390f35b3480156104bd57600080fd5b506104c661349d565b6040516104d39190614ff9565b60405180910390f35b3480156104e857600080fd5b506104f161352b565b6040516104fe919061503c565b60405180910390f35b34801561051357600080fd5b5061051c61354f565b60405161052991906144c2565b60405180910390f35b6003602052816000526040600020818154811061054e57600080fd5b90600052602060002090600a0201600091509150508060000160009054906101000a900473ffffffffffffffffffffffffffffffffffffffff16908060010160009054906101000a900473ffffffffffffffffffffffffffffffffffffffff16908060020160009054906101000a900473ffffffffffffffffffffffffffffffffffffffff16908060030154908060040154908060050160009054906101000a9004600b0b9080600501600c9054906101000a9004600b0b908060090160009054906101000a900460ff16908060090160019054906101000a900460ff16908060090160029054906101000a900460ff16908060090160039054906101000a900460ff1690508b565b60008019166001541461069f576040517f08c379a0000000000000000000000000000000000000000000000000000000008152600401610696906150b4565b60405180910390fd5b60006040518060400160405280600267ffffffffffffffff8111156106c7576106c66144e2565b5b6040519080825280602002602001820160405280156106f55781602001602082028036833780820191505090505b508152602001600267ffffffffffffffff811115610716576107156144e2565b5b60405190808252806020026020018201604052801561074957816020015b60608152602001906001900390816107345790505b50815250905060008160000151600081518110610769576107686150d4565b5b6020026020010190600381111561078357610782615103565b5b9081600381111561079757610796615103565b5b81525050600281600001516001815181106107b5576107b46150d4565b5b602002602001019060038111156107cf576107ce615103565b5b908160038111156107e3576107e2615103565b5b81525050610854303073ffffffffffffffffffffffffffffffffffffffff1663a81a01b4604051602401604051602081830303815290604052915060e01b6020820180517bffffffffffffffffffffffffffffffffffffffffffffffffffffffff8381831617835250505050613555565b816020015160008151811061086c5761086b6150d4565b5b602002602001018190525061087f613581565b8160200151600181518110610897576108966150d4565b5b602002602001018190525060006108d73063af49721f60e01b6040516020016108c0919061516d565b604051602081830303815290604052846000613598565b9050806001819055507fa585557108354aa3685e5fe0424ad88ab5bcabc78119a3d599ae901ccb1999938160405161090f91906144c2565b60405180910390a15050565b7f000000000000000000000000000000000000000000000000000000000000000081565b60056020528060005260406000206000915054906101000a900460ff1681565b7f000000000000000000000000000000000000000000000000000000000000000073ffffffffffffffffffffffffffffffffffffffff163373ffffffffffffffffffffffffffffffffffffffff16146109ed576040517f08c379a00000000000000000000000000000000000000000000000000000000081526004016109e4906151d4565b60405180910390fd5b6001600360008573ffffffffffffffffffffffffffffffffffffffff1673ffffffffffffffffffffffffffffffffffffffff1681526020019081526020016000208381548110610a4057610a3f6150d4565b5b90600052602060002090600a02016008018281548110610a6357610a626150d4565b5b90600052602060002090602091828204019190066101000a81548160ff021916908315150217905550600360008473ffffffffffffffffffffffffffffffffffffffff1673ffffffffffffffffffffffffffffffffffffffff1681526020019081526020016000208281548110610add57610adc6150d4565b5b90600052602060002090600a02016007018181548110610b0057610aff6150d4565b5b9060005260206000209060029182820401919006600c029054906101000a9004600b0b600360008573ffffffffffffffffffffffffffffffffffffffff1673ffffffffffffffffffffffffffffffffffffffff1681526020019081526020016000208381548110610b7457610b736150d4565b5b90600052602060002090600a0201600501600c6101000a8154816bffffffffffffffffffffffff0219169083600b0b6bffffffffffffffffffffffff1602179055506000600360008573ffffffffffffffffffffffffffffffffffffffff1673ffffffffffffffffffffffffffffffffffffffff1681526020019081526020016000208381548110610c0957610c086150d4565b5b90600052602060002090600a020160020160009054906101000a900473ffffffffffffffffffffffffffffffffffffffff169050610d5b84600360008773ffffffffffffffffffffffffffffffffffffffff1673ffffffffffffffffffffffffffffffffffffffff1681526020019081526020016000208581548110610c9257610c916150d4565b5b90600052602060002090600a020160010160009054906101000a900473ffffffffffffffffffffffffffffffffffffffff16600360008873ffffffffffffffffffffffffffffffffffffffff1673ffffffffffffffffffffffffffffffffffffffff1681526020019081526020016000208681548110610d1557610d146150d4565b5b90600052602060002090600a0201600501600c9054906101000a9004600b0b8473ffffffffffffffffffffffffffffffffffffffff16613646909392919063ffffffff16565b5050505050565b7f000000000000000000000000000000000000000000000000000000000000000081565b7f000000000000000000000000000000000000000000000000000000000000000073ffffffffffffffffffffffffffffffffffffffff163373ffffffffffffffffffffffffffffffffffffffff1614610e14576040517f08c379a0000000000000000000000000000000000000000000000000000000008152600401610e0b906151d4565b60405180910390fd5b6001600360008473ffffffffffffffffffffffffffffffffffffffff1673ffffffffffffffffffffffffffffffffffffffff1681526020019081526020016000208281548110610e6757610e666150d4565b5b90600052602060002090600a020160090160006101000a81548160ff0219169083151502179055506000600360008473ffffffffffffffffffffffffffffffffffffffff1673ffffffffffffffffffffffffffffffffffffffff1681526020019081526020016000208281548110610ee257610ee16150d4565b5b90600052602060002090600a020160020160009054906101000a900473ffffffffffffffffffffffffffffffffffffffff16905061103483600360008673ffffffffffffffffffffffffffffffffffffffff1673ffffffffffffffffffffffffffffffffffffffff1681526020019081526020016000208481548110610f6b57610f6a6150d4565b5b90600052602060002090600a020160010160009054906101000a900473ffffffffffffffffffffffffffffffffffffffff16600360008773ffffffffffffffffffffffffffffffffffffffff1673ffffffffffffffffffffffffffffffffffffffff1681526020019081526020016000208581548110610fee57610fed6150d4565b5b90600052602060002090600a020160050160009054906101000a9004600b0b8473ffffffffffffffffffffffffffffffffffffffff166137fc909392919063ffffffff16565b50505050565b6000606060005b60048054905081101561158f5760005b6003600060048481548110611069576110686150d4565b5b9060005260206000200160009054906101000a900473ffffffffffffffffffffffffffffffffffffffff1673ffffffffffffffffffffffffffffffffffffffff1673ffffffffffffffffffffffffffffffffffffffff1681526020019081526020016000208054905081101561157b576000151560036000600485815481106110f5576110f46150d4565b5b9060005260206000200160009054906101000a900473ffffffffffffffffffffffffffffffffffffffff1673ffffffffffffffffffffffffffffffffffffffff1673ffffffffffffffffffffffffffffffffffffffff168152602001908152602001600020828154811061116c5761116b6150d4565b5b90600052602060002090600a020160090160029054906101000a900460ff161515036115685760005b60036000600485815481106111ad576111ac6150d4565b5b9060005260206000200160009054906101000a900473ffffffffffffffffffffffffffffffffffffffff1673ffffffffffffffffffffffffffffffffffffffff1673ffffffffffffffffffffffffffffffffffffffff1681526020019081526020016000208281548110611224576112236150d4565b5b90600052602060002090600a0201600601805490508110156115665760001515600360006004868154811061125c5761125b6150d4565b5b9060005260206000200160009054906101000a900473ffffffffffffffffffffffffffffffffffffffff1673ffffffffffffffffffffffffffffffffffffffff1673ffffffffffffffffffffffffffffffffffffffff16815260200190815260200160002083815481106112d3576112d26150d4565b5b90600052602060002090600a020160080182815481106112f6576112f56150d4565b5b90600052602060002090602091828204019190069054906101000a900460ff16151503611553576003600060048581548110611335576113346150d4565b5b9060005260206000200160009054906101000a900473ffffffffffffffffffffffffffffffffffffffff1673ffffffffffffffffffffffffffffffffffffffff1673ffffffffffffffffffffffffffffffffffffffff16815260200190815260200160002082815481106113ac576113ab6150d4565b5b90600052602060002090600a020160060181815481106113cf576113ce6150d4565b5b906000526020600020015442119450631e4e446e60e01b60036000600486815481106113fe576113fd6150d4565b5b9060005260206000200160009054906101000a900473ffffffffffffffffffffffffffffffffffffffff1673ffffffffffffffffffffffffffffffffffffffff1673ffffffffffffffffffffffffffffffffffffffff1681526020019081526020016000208381548110611475576114746150d4565b5b90600052602060002090600a020160000160009054906101000a900473ffffffffffffffffffffffffffffffffffffffff1683836040516024016114bb939291906151f4565b604051602081830303815290604052907bffffffffffffffffffffffffffffffffffffffffffffffffffffffff19166020820180517bffffffffffffffffffffffffffffffffffffffffffffffffffffffff83818316178352505050509350841561152c5760019450505050611591565b6000604051806060016040528060238152602001615bd56023913994509450505050611591565b808061155e9061525a565b915050611195565b505b80806115739061525a565b915050611051565b5080806115879061525a565b915050611041565b505b9091565b60005481565b60025481565b7f000000000000000000000000000000000000000000000000000000000000000081565b60008019166002541461160d576040517f08c379a0000000000000000000000000000000000000000000000000000000008152600401611604906150b4565b60405180910390fd5b60006040518060400160405280600267ffffffffffffffff811115611635576116346144e2565b5b6040519080825280602002602001820160405280156116635781602001602082028036833780820191505090505b508152602001600267ffffffffffffffff811115611684576116836144e2565b5b6040519080825280602002602001820160405280156116b757816020015b60608152602001906001900390816116a25790505b508152509050600081600001516000815181106116d7576116d66150d4565b5b602002602001019060038111156116f1576116f0615103565b5b9081600381111561170557611704615103565b5b8152505060028160000151600181518110611723576117226150d4565b5b6020026020010190600381111561173d5761173c615103565b5b9081600381111561175157611750615103565b5b815250506117c2303073ffffffffffffffffffffffffffffffffffffffff16632f252161604051602401604051602081830303815290604052915060e01b6020820180517bffffffffffffffffffffffffffffffffffffffffffffffffffffffff8381831617835250505050613555565b81602001516000815181106117da576117d96150d4565b5b60200260200101819052506117ed613581565b8160200151600181518110611805576118046150d4565b5b6020026020010181905250600061184530631e4e446e60e01b60405160200161182e919061516d565b604051602081830303815290604052846000613598565b9050806002819055507fa585557108354aa3685e5fe0424ad88ab5bcabc78119a3d599ae901ccb1999938160405161187d91906144c2565b60405180910390a15050565b806101a0015115611c9b5780608001518160600151106118de576040517f08c379a00000000000000000000000000000000000000000000000000000000081526004016118d590615314565b60405180910390fd5b8061016001516119fd5760005b60018260e00151516118fd9190615334565b8110156119fb5781606001518260e0015182815181106119205761191f6150d4565b5b6020026020010151118015611956575081608001518260e00151828151811061194c5761194b6150d4565b5b6020026020010151105b80156119a957508160e0015160018261196f9190615368565b815181106119805761197f6150d4565b5b60200260200101518260e00151828151811061199f5761199e6150d4565b5b6020026020010151105b6119e8576040517f08c379a00000000000000000000000000000000000000000000000000000000081526004016119df906153e8565b60405180910390fd5b80806119f39061525a565b9150506118eb565b505b80600360003373ffffffffffffffffffffffffffffffffffffffff1673ffffffffffffffffffffffffffffffffffffffff1681526020019081526020016000208381548110611a4f57611a4e6150d4565b5b90600052602060002090600a020160008201518160000160006101000a81548173ffffffffffffffffffffffffffffffffffffffff021916908373ffffffffffffffffffffffffffffffffffffffff16021790555060208201518160010160006101000a81548173ffffffffffffffffffffffffffffffffffffffff021916908373ffffffffffffffffffffffffffffffffffffffff16021790555060408201518160020160006101000a81548173ffffffffffffffffffffffffffffffffffffffff021916908373ffffffffffffffffffffffffffffffffffffffff160217905550606082015181600301556080820151816004015560a08201518160050160006101000a8154816bffffffffffffffffffffffff0219169083600b0b6bffffffffffffffffffffffff16021790555060c082015181600501600c6101000a8154816bffffffffffffffffffffffff0219169083600b0b6bffffffffffffffffffffffff16021790555060e0820151816006019080519060200190611bd6929190613ed5565b50610100820151816007019080519060200190611bf4929190613f22565b50610120820151816008019080519060200190611c12929190613fed565b506101408201518160090160006101000a81548160ff0219169083151502179055506101608201518160090160016101000a81548160ff0219169083151502179055506101808201518160090160026101000a81548160ff0219169083151502179055506101a08201518160090160036101000a81548160ff0219169083151502179055509050505b5050565b6060600360008373ffffffffffffffffffffffffffffffffffffffff1673ffffffffffffffffffffffffffffffffffffffff168152602001908152602001600020805480602002602001604051908101604052809291908181526020016000905b8282101561204257838290600052602060002090600a0201604051806101c00160405290816000820160009054906101000a900473ffffffffffffffffffffffffffffffffffffffff1673ffffffffffffffffffffffffffffffffffffffff1673ffffffffffffffffffffffffffffffffffffffff1681526020016001820160009054906101000a900473ffffffffffffffffffffffffffffffffffffffff1673ffffffffffffffffffffffffffffffffffffffff1673ffffffffffffffffffffffffffffffffffffffff1681526020016002820160009054906101000a900473ffffffffffffffffffffffffffffffffffffffff1673ffffffffffffffffffffffffffffffffffffffff1673ffffffffffffffffffffffffffffffffffffffff16815260200160038201548152602001600482015481526020016005820160009054906101000a9004600b0b600b0b600b0b815260200160058201600c9054906101000a9004600b0b600b0b600b0b815260200160068201805480602002602001604051908101604052809291908181526020018280548015611ec357602002820191906000526020600020905b815481526020019060010190808311611eaf575b5050505050815260200160078201805480602002602001604051908101604052809291908181526020018280548015611f4157602002820191906000526020600020906000905b82829054906101000a9004600b0b600b0b815260200190600c0190602082600b01049283019260010382029150808411611f0a5790505b5050505050815260200160088201805480602002602001604051908101604052809291908181526020018280548015611fbe57602002820191906000526020600020906000905b82829054906101000a900460ff16151581526020019060010190602082600001049283019260010382029150808411611f885790505b505050505081526020016009820160009054906101000a900460ff161515151581526020016009820160019054906101000a900460ff161515151581526020016009820160029054906101000a900460ff161515151581526020016009820160039054906101000a900460ff16151515158152505081526020019060010190611d00565b505050509050919050565b806101a00151156121c25780608001518160600151106120a2576040517f08c379a000000000000000000000000000000000000000000000000000000000815260040161209990615314565b60405180910390fd5b8061016001516121c15760005b60018260e00151516120c19190615334565b8110156121bf5781606001518260e0015182815181106120e4576120e36150d4565b5b602002602001015111801561211a575081608001518260e0015182815181106121105761210f6150d4565b5b6020026020010151105b801561216d57508160e001516001826121339190615368565b81518110612144576121436150d4565b5b60200260200101518260e001518281518110612163576121626150d4565b5b6020026020010151105b6121ac576040517f08c379a00000000000000000000000000000000000000000000000000000000081526004016121a3906153e8565b60405180910390fd5b80806121b79061525a565b9150506120af565b505b5b600360003373ffffffffffffffffffffffffffffffffffffffff1673ffffffffffffffffffffffffffffffffffffffff1681526020019081526020016000208190806001815401808255809150506001900390600052602060002090600a020160009091909190915060008201518160000160006101000a81548173ffffffffffffffffffffffffffffffffffffffff021916908373ffffffffffffffffffffffffffffffffffffffff16021790555060208201518160010160006101000a81548173ffffffffffffffffffffffffffffffffffffffff021916908373ffffffffffffffffffffffffffffffffffffffff16021790555060408201518160020160006101000a81548173ffffffffffffffffffffffffffffffffffffffff021916908373ffffffffffffffffffffffffffffffffffffffff160217905550606082015181600301556080820151816004015560a08201518160050160006101000a8154816bffffffffffffffffffffffff0219169083600b0b6bffffffffffffffffffffffff16021790555060c082015181600501600c6101000a8154816bffffffffffffffffffffffff0219169083600b0b6bffffffffffffffffffffffff16021790555060e08201518160060190805190602001906123a4929190613ed5565b506101008201518160070190805190602001906123c2929190613f22565b506101208201518160080190805190602001906123e0929190613fed565b506101408201518160090160006101000a81548160ff0219169083151502179055506101608201518160090160016101000a81548160ff0219169083151502179055506101808201518160090160026101000a81548160ff0219169083151502179055506101a08201518160090160036101000a81548160ff021916908315150217905550505060001515600560003373ffffffffffffffffffffffffffffffffffffffff1673ffffffffffffffffffffffffffffffffffffffff16815260200190815260200160002060009054906101000a900460ff1615150361257b576004339080600181540180825580915050600190039060005260206000200160009091909190916101000a81548173ffffffffffffffffffffffffffffffffffffffff021916908373ffffffffffffffffffffffffffffffffffffffff1602179055506001600560003373ffffffffffffffffffffffffffffffffffffffff1673ffffffffffffffffffffffffffffffffffffffff16815260200190815260200160002060006101000a81548160ff0219169083151502179055505b50565b7f000000000000000000000000000000000000000000000000000000000000000073ffffffffffffffffffffffffffffffffffffffff163373ffffffffffffffffffffffffffffffffffffffff161461260c576040517f08c379a00000000000000000000000000000000000000000000000000000000081526004016126039061547a565b60405180910390fd5b7f000000000000000000000000000000000000000000000000000000000000000073ffffffffffffffffffffffffffffffffffffffff16631c20fadd7f000000000000000000000000000000000000000000000000000000000000000083856040518463ffffffff1660e01b8152600401612689939291906154bb565b600060405180830381600087803b1580156126a357600080fd5b505af11580156126b7573d6000803e3d6000fd5b505050505050565b600080191660005414612707576040517f08c379a00000000000000000000000000000000000000000000000000000000081526004016126fe906150b4565b60405180910390fd5b60006040518060400160405280600267ffffffffffffffff81111561272f5761272e6144e2565b5b60405190808252806020026020018201604052801561275d5781602001602082028036833780820191505090505b508152602001600267ffffffffffffffff81111561277e5761277d6144e2565b5b6040519080825280602002602001820160405280156127b157816020015b606081526020019060019003908161279c5790505b508152509050600081600001516000815181106127d1576127d06150d4565b5b602002602001019060038111156127eb576127ea615103565b5b908160038111156127ff576127fe615103565b5b815250506002816000015160018151811061281d5761281c6150d4565b5b6020026020010190600381111561283757612836615103565b5b9081600381111561284b5761284a615103565b5b815250506128bc303073ffffffffffffffffffffffffffffffffffffffff1663cf5303cf604051602401604051602081830303815290604052915060e01b6020820180517bffffffffffffffffffffffffffffffffffffffffffffffffffffffff8381831617835250505050613555565b81602001516000815181106128d4576128d36150d4565b5b60200260200101819052506128e7613581565b81602001516001815181106128ff576128fe6150d4565b5b6020026020010181905250600061293f30632967c90660e01b604051602001612928919061516d565b604051602081830303815290604052846000613598565b9050806000819055507fa585557108354aa3685e5fe0424ad88ab5bcabc78119a3d599ae901ccb1999938160405161297791906144c2565b60405180910390a15050565b6000606060005b600480549050811015612ddf5760005b60036000600484815481106129b2576129b16150d4565b5b9060005260206000200160009054906101000a900473ffffffffffffffffffffffffffffffffffffffff1673ffffffffffffffffffffffffffffffffffffffff1673ffffffffffffffffffffffffffffffffffffffff16815260200190815260200160002080549050811015612dcb57600015156003600060048581548110612a3e57612a3d6150d4565b5b9060005260206000200160009054906101000a900473ffffffffffffffffffffffffffffffffffffffff1673ffffffffffffffffffffffffffffffffffffffff1673ffffffffffffffffffffffffffffffffffffffff1681526020019081526020016000208281548110612ab557612ab46150d4565b5b90600052602060002090600a020160090160029054906101000a900460ff16151503612db85760006003600060048581548110612af557612af46150d4565b5b9060005260206000200160009054906101000a900473ffffffffffffffffffffffffffffffffffffffff1673ffffffffffffffffffffffffffffffffffffffff1673ffffffffffffffffffffffffffffffffffffffff1681526020019081526020016000208281548110612b6c57612b6b6150d4565b5b90600052602060002090600a0201600401541115612db7576003600060048481548110612b9c57612b9b6150d4565b5b9060005260206000200160009054906101000a900473ffffffffffffffffffffffffffffffffffffffff1673ffffffffffffffffffffffffffffffffffffffff1673ffffffffffffffffffffffffffffffffffffffff1681526020019081526020016000208181548110612c1357612c126150d4565b5b90600052602060002090600a0201600401544211935063af49721f60e01b6003600060048581548110612c4957612c486150d4565b5b9060005260206000200160009054906101000a900473ffffffffffffffffffffffffffffffffffffffff1673ffffffffffffffffffffffffffffffffffffffff1673ffffffffffffffffffffffffffffffffffffffff1681526020019081526020016000208281548110612cc057612cbf6150d4565b5b90600052602060002090600a020160000160009054906101000a900473ffffffffffffffffffffffffffffffffffffffff1682604051602401612d049291906154f2565b604051602081830303815290604052907bffffffffffffffffffffffffffffffffffffffffffffffffffffffff19166020820180517bffffffffffffffffffffffffffffffffffffffffffffffffffffffff838183161783525050505092508315612d7457600193505050612de1565b60006040518060400160405280602081526020017f536f6d652074696d65206c65667420746f20656e64207468652073747265616d815250935093505050612de1565b5b8080612dc39061525a565b91505061299a565b508080612dd79061525a565b91505061298a565b505b9091565b7f000000000000000000000000000000000000000000000000000000000000000073ffffffffffffffffffffffffffffffffffffffff163373ffffffffffffffffffffffffffffffffffffffff1614612e73576040517f08c379a0000000000000000000000000000000000000000000000000000000008152600401612e6a906151d4565b60405180910390fd5b6001600360008473ffffffffffffffffffffffffffffffffffffffff1673ffffffffffffffffffffffffffffffffffffffff1681526020019081526020016000208281548110612ec657612ec56150d4565b5b90600052602060002090600a020160090160026101000a81548160ff0219169083151502179055506000600360008473ffffffffffffffffffffffffffffffffffffffff1673ffffffffffffffffffffffffffffffffffffffff1681526020019081526020016000208281548110612f4157612f406150d4565b5b90600052602060002090600a020160020160009054906101000a900473ffffffffffffffffffffffffffffffffffffffff16905061302283600360008673ffffffffffffffffffffffffffffffffffffffff1673ffffffffffffffffffffffffffffffffffffffff1681526020019081526020016000208481548110612fca57612fc96150d4565b5b90600052602060002090600a020160010160009054906101000a900473ffffffffffffffffffffffffffffffffffffffff168373ffffffffffffffffffffffffffffffffffffffff166139b29092919063ffffffff16565b50505050565b6130463473eeeeeeeeeeeeeeeeeeeeeeeeeeeeeeeeeeeeeeee613b65565b565b6000606060005b6004805490508110156134975760005b6003600060048481548110613077576130766150d4565b5b9060005260206000200160009054906101000a900473ffffffffffffffffffffffffffffffffffffffff1673ffffffffffffffffffffffffffffffffffffffff1673ffffffffffffffffffffffffffffffffffffffff1681526020019081526020016000208054905081101561348357600015156003600060048581548110613103576131026150d4565b5b9060005260206000200160009054906101000a900473ffffffffffffffffffffffffffffffffffffffff1673ffffffffffffffffffffffffffffffffffffffff1673ffffffffffffffffffffffffffffffffffffffff168152602001908152602001600020828154811061317a576131796150d4565b5b90600052602060002090600a020160090160029054906101000a900460ff16151503613470576000151560036000600485815481106131bc576131bb6150d4565b5b9060005260206000200160009054906101000a900473ffffffffffffffffffffffffffffffffffffffff1673ffffffffffffffffffffffffffffffffffffffff1673ffffffffffffffffffffffffffffffffffffffff1681526020019081526020016000208281548110613233576132326150d4565b5b90600052602060002090600a020160090160009054906101000a900460ff1615150361346f576003600060048481548110613271576132706150d4565b5b9060005260206000200160009054906101000a900473ffffffffffffffffffffffffffffffffffffffff1673ffffffffffffffffffffffffffffffffffffffff1673ffffffffffffffffffffffffffffffffffffffff16815260200190815260200160002081815481106132e8576132e76150d4565b5b90600052602060002090600a02016003015442119350632967c90660e01b600360006004858154811061331e5761331d6150d4565b5b9060005260206000200160009054906101000a900473ffffffffffffffffffffffffffffffffffffffff1673ffffffffffffffffffffffffffffffffffffffff1673ffffffffffffffffffffffffffffffffffffffff1681526020019081526020016000208281548110613395576133946150d4565b5b90600052602060002090600a020160000160009054906101000a900473ffffffffffffffffffffffffffffffffffffffff16826040516024016133d99291906154f2565b604051602081830303815290604052907bffffffffffffffffffffffffffffffffffffffffffffffffffffffff19166020820180517bffffffffffffffffffffffffffffffffffffffffffffffffffffffff83818316178352505050509250831561344957600193505050613499565b6000604051806060016040528060258152602001615bb060259139935093505050613499565b5b808061347b9061525a565b91505061305f565b50808061348f9061525a565b91505061304f565b505b9091565b6060600480548060200260200160405190810160405280929190818152602001828054801561352157602002820191906000526020600020905b8160009054906101000a900473ffffffffffffffffffffffffffffffffffffffff1673ffffffffffffffffffffffffffffffffffffffff16815260200190600101908083116134d7575b5050505050905090565b7f000000000000000000000000000000000000000000000000000000000000000081565b60015481565b6060828260405160200161356a92919061551b565b604051602081830303815290604052905092915050565b606060405180602001604052806000815250905090565b60007f000000000000000000000000000000000000000000000000000000000000000073ffffffffffffffffffffffffffffffffffffffff16633323b467868686866040518563ffffffff1660e01b81526004016135f99493929190615792565b6020604051808303816000875af1158015613618573d6000803e3d6000fd5b505050506040513d601f19601f8201168201806040525081019061363c9190615811565b9050949350505050565b600080600061365487613c4e565b915091508173ffffffffffffffffffffffffffffffffffffffff166339255d5b828373ffffffffffffffffffffffffffffffffffffffff1663354b95908b8b8b8b600067ffffffffffffffff8111156136b0576136af6144e2565b5b6040519080825280601f01601f1916602001820160405280156136e25781602001600182028036833780820191505090505b506040516024016136f795949392919061583e565b604051602081830303815290604052915060e01b6020820180517bffffffffffffffffffffffffffffffffffffffffffffffffffffffff8381831617835250505050600067ffffffffffffffff811115613754576137536144e2565b5b6040519080825280601f01601f1916602001820160405280156137865781602001600182028036833780820191505090505b506040518463ffffffff1660e01b81526004016137a5939291906158b9565b6000604051808303816000875af11580156137c4573d6000803e3d6000fd5b505050506040513d6000823e3d601f19601f820116820180604052508101906137ed91906159a4565b50600192505050949350505050565b600080600061380a87613c4e565b915091508173ffffffffffffffffffffffffffffffffffffffff166339255d5b828373ffffffffffffffffffffffffffffffffffffffff166394229ecb8b8b8b8b600067ffffffffffffffff811115613866576138656144e2565b5b6040519080825280601f01601f1916602001820160405280156138985781602001600182028036833780820191505090505b506040516024016138ad95949392919061583e565b604051602081830303815290604052915060e01b6020820180517bffffffffffffffffffffffffffffffffffffffffffffffffffffffff8381831617835250505050600067ffffffffffffffff81111561390a576139096144e2565b5b6040519080825280601f01601f19166020018201604052801561393c5781602001600182028036833780820191505090505b506040518463ffffffff1660e01b815260040161395b939291906158b9565b6000604051808303816000875af115801561397a573d6000803e3d6000fd5b505050506040513d6000823e3d601f19601f820116820180604052508101906139a391906159a4565b50600192505050949350505050565b60008060006139c086613c4e565b915091508173ffffffffffffffffffffffffffffffffffffffff166339255d5b828373ffffffffffffffffffffffffffffffffffffffff1663b4b333c68a8a8a600067ffffffffffffffff811115613a1b57613a1a6144e2565b5b6040519080825280601f01601f191660200182016040528015613a4d5781602001600182028036833780820191505090505b50604051602401613a6194939291906159ed565b604051602081830303815290604052915060e01b6020820180517bffffffffffffffffffffffffffffffffffffffffffffffffffffffff8381831617835250505050600067ffffffffffffffff811115613abe57613abd6144e2565b5b6040519080825280601f01601f191660200182016040528015613af05781602001600182028036833780820191505090505b506040518463ffffffff1660e01b8152600401613b0f939291906158b9565b6000604051808303816000875af1158015613b2e573d6000803e3d6000fd5b505050506040513d6000823e3d601f19601f82011682018060405250810190613b5791906159a4565b506001925050509392505050565b600073eeeeeeeeeeeeeeeeeeeeeeeeeeeeeeeeeeeeeeee73ffffffffffffffffffffffffffffffffffffffff168273ffffffffffffffffffffffffffffffffffffffff1614613bb5576000613bb7565b825b90507f000000000000000000000000000000000000000000000000000000000000000073ffffffffffffffffffffffffffffffffffffffff1663c1461d57823085876040518563ffffffff1660e01b8152600401613c1793929190615a39565b6000604051808303818588803b158015613c3057600080fd5b505af1158015613c44573d6000803e3d6000fd5b5050505050505050565b6000807f65599bf746e17a00ea62e3610586992d88101b78eec3cf380706621fb97ea8375491507fb969d79d88acd02d04ed7ee7d43b949e7daf093d363abcfbbc43dfdfd1ce969a549050600073ffffffffffffffffffffffffffffffffffffffff168173ffffffffffffffffffffffffffffffffffffffff1603613e5657600073ffffffffffffffffffffffffffffffffffffffff168273ffffffffffffffffffffffffffffffffffffffff1603613d73578273ffffffffffffffffffffffffffffffffffffffff166320bc44256040518163ffffffff1660e01b8152600401602060405180830381865afa158015613d4c573d6000803e3d6000fd5b505050506040513d601f19601f82011682018060405250810190613d709190615a85565b91505b8173ffffffffffffffffffffffffffffffffffffffff1663b6d200de7fa9214cc96615e0085d3bb077758db69497dc2dce3b2b1e97bc93c3d18d83efd36040518263ffffffff1660e01b8152600401613dcc9190615afa565b602060405180830381865afa158015613de9573d6000803e3d6000fd5b505050506040513d601f19601f82011682018060405250810190613e0d9190615b53565b9050817f65599bf746e17a00ea62e3610586992d88101b78eec3cf380706621fb97ea83755807fb969d79d88acd02d04ed7ee7d43b949e7daf093d363abcfbbc43dfdfd1ce969a555b600073ffffffffffffffffffffffffffffffffffffffff168273ffffffffffffffffffffffffffffffffffffffff1603613e9357613e92615b80565b5b600073ffffffffffffffffffffffffffffffffffffffff168173ffffffffffffffffffffffffffffffffffffffff1603613ed057613ecf615b80565b5b915091565b828054828255906000526020600020908101928215613f11579160200282015b82811115613f10578251825591602001919060010190613ef5565b5b509050613f1e9190614093565b5090565b82805482825590600052602060002090600101600290048101928215613fdc5791602002820160005b83821115613fa257835183826101000a8154816bffffffffffffffffffffffff0219169083600b0b6bffffffffffffffffffffffff1602179055509260200192600c01602081600b01049283019260010302613f4b565b8015613fda5782816101000a8154906bffffffffffffffffffffffff0219169055600c01602081600b01049283019260010302613fa2565b505b509050613fe99190614093565b5090565b82805482825590600052602060002090601f016020900481019282156140825791602002820160005b8382111561405357835183826101000a81548160ff0219169083151502179055509260200192600101602081600001049283019260010302614016565b80156140805782816101000a81549060ff0219169055600101602081600001049283019260010302614053565b505b50905061408f9190614093565b5090565b5b808211156140ac576000816000905550600101614094565b5090565b6000604051905090565b600080fd5b600080fd5b600073ffffffffffffffffffffffffffffffffffffffff82169050919050565b60006140ef826140c4565b9050919050565b6140ff816140e4565b811461410a57600080fd5b50565b60008135905061411c816140f6565b92915050565b6000819050919050565b61413581614122565b811461414057600080fd5b50565b6000813590506141528161412c565b92915050565b6000806040838503121561416f5761416e6140ba565b5b600061417d8582860161410d565b925050602061418e85828601614143565b9150509250929050565b6141a1816140e4565b82525050565b6000819050919050565b60006141cc6141c76141c2846140c4565b6141a7565b6140c4565b9050919050565b60006141de826141b1565b9050919050565b60006141f0826141d3565b9050919050565b614200816141e5565b82525050565b61420f81614122565b82525050565b600081600b0b9050919050565b61422b81614215565b82525050565b60008115159050919050565b61424681614231565b82525050565b600061016082019050614262600083018e614198565b61426f602083018d614198565b61427c604083018c6141f7565b614289606083018b614206565b614296608083018a614206565b6142a360a0830189614222565b6142b060c0830188614222565b6142bd60e083018761423d565b6142cb61010083018661423d565b6142d961012083018561423d565b6142e761014083018461423d565b9c9b505050505050505050505050565b6000614302826141d3565b9050919050565b614312816142f7565b82525050565b600060208201905061432d6000830184614309565b92915050565b600060208284031215614349576143486140ba565b5b60006143578482850161410d565b91505092915050565b6000602082019050614375600083018461423d565b92915050565b600080600060608486031215614394576143936140ba565b5b60006143a28682870161410d565b93505060206143b386828701614143565b92505060406143c486828701614143565b9150509250925092565b60006020820190506143e36000830184614198565b92915050565b600081519050919050565b600082825260208201905092915050565b60005b83811015614423578082015181840152602081019050614408565b60008484015250505050565b6000601f19601f8301169050919050565b600061444b826143e9565b61445581856143f4565b9350614465818560208601614405565b61446e8161442f565b840191505092915050565b600060408201905061448e600083018561423d565b81810360208301526144a08184614440565b90509392505050565b6000819050919050565b6144bc816144a9565b82525050565b60006020820190506144d760008301846144b3565b92915050565b600080fd5b7f4e487b7100000000000000000000000000000000000000000000000000000000600052604160045260246000fd5b61451a8261442f565b810181811067ffffffffffffffff82111715614539576145386144e2565b5b80604052505050565b600061454c6140b0565b90506145588282614511565b919050565b600080fd5b600061456d826140e4565b9050919050565b61457d81614562565b811461458857600080fd5b50565b60008135905061459a81614574565b92915050565b6145a981614215565b81146145b457600080fd5b50565b6000813590506145c6816145a0565b92915050565b600080fd5b600067ffffffffffffffff8211156145ec576145eb6144e2565b5b602082029050602081019050919050565b600080fd5b6000614615614610846145d1565b614542565b90508083825260208201905060208402830185811115614638576146376145fd565b5b835b81811015614661578061464d8882614143565b84526020840193505060208101905061463a565b5050509392505050565b600082601f8301126146805761467f6145cc565b5b8135614690848260208601614602565b91505092915050565b600067ffffffffffffffff8211156146b4576146b36144e2565b5b602082029050602081019050919050565b60006146d86146d384614699565b614542565b905080838252602082019050602084028301858111156146fb576146fa6145fd565b5b835b81811015614724578061471088826145b7565b8452602084019350506020810190506146fd565b5050509392505050565b600082601f830112614743576147426145cc565b5b81356147538482602086016146c5565b91505092915050565b600067ffffffffffffffff821115614777576147766144e2565b5b602082029050602081019050919050565b61479181614231565b811461479c57600080fd5b50565b6000813590506147ae81614788565b92915050565b60006147c76147c28461475c565b614542565b905080838252602082019050602084028301858111156147ea576147e96145fd565b5b835b8181101561481357806147ff888261479f565b8452602084019350506020810190506147ec565b5050509392505050565b600082601f830112614832576148316145cc565b5b81356148428482602086016147b4565b91505092915050565b60006101c08284031215614862576148616144dd565b5b61486d6101c0614542565b9050600061487d8482850161410d565b60008301525060206148918482850161410d565b60208301525060406148a58482850161458b565b60408301525060606148b984828501614143565b60608301525060806148cd84828501614143565b60808301525060a06148e1848285016145b7565b60a08301525060c06148f5848285016145b7565b60c08301525060e082013567ffffffffffffffff8111156149195761491861455d565b5b6149258482850161466b565b60e08301525061010082013567ffffffffffffffff81111561494a5761494961455d565b5b6149568482850161472e565b6101008301525061012082013567ffffffffffffffff81111561497c5761497b61455d565b5b6149888482850161481d565b6101208301525061014061499e8482850161479f565b610140830152506101606149b48482850161479f565b610160830152506101806149ca8482850161479f565b610180830152506101a06149e08482850161479f565b6101a08301525092915050565b60008060408385031215614a0457614a036140ba565b5b6000614a1285828601614143565b925050602083013567ffffffffffffffff811115614a3357614a326140bf565b5b614a3f8582860161484b565b9150509250929050565b600081519050919050565b600082825260208201905092915050565b6000819050602082019050919050565b614a7e816140e4565b82525050565b614a8d816141e5565b82525050565b614a9c81614122565b82525050565b614aab81614215565b82525050565b600081519050919050565b600082825260208201905092915050565b6000819050602082019050919050565b6000614ae98383614a93565b60208301905092915050565b6000602082019050919050565b6000614b0d82614ab1565b614b178185614abc565b9350614b2283614acd565b8060005b83811015614b53578151614b3a8882614add565b9750614b4583614af5565b925050600181019050614b26565b5085935050505092915050565b600081519050919050565b600082825260208201905092915050565b6000819050602082019050919050565b6000614b988383614aa2565b60208301905092915050565b6000602082019050919050565b6000614bbc82614b60565b614bc68185614b6b565b9350614bd183614b7c565b8060005b83811015614c02578151614be98882614b8c565b9750614bf483614ba4565b925050600181019050614bd5565b5085935050505092915050565b600081519050919050565b600082825260208201905092915050565b6000819050602082019050919050565b614c4481614231565b82525050565b6000614c568383614c3b565b60208301905092915050565b6000602082019050919050565b6000614c7a82614c0f565b614c848185614c1a565b9350614c8f83614c2b565b8060005b83811015614cc0578151614ca78882614c4a565b9750614cb283614c62565b925050600181019050614c93565b5085935050505092915050565b60006101c083016000830151614ce66000860182614a75565b506020830151614cf96020860182614a75565b506040830151614d0c6040860182614a84565b506060830151614d1f6060860182614a93565b506080830151614d326080860182614a93565b5060a0830151614d4560a0860182614aa2565b5060c0830151614d5860c0860182614aa2565b5060e083015184820360e0860152614d708282614b02565b915050610100830151848203610100860152614d8c8282614bb1565b915050610120830151848203610120860152614da88282614c6f565b915050610140830151614dbf610140860182614c3b565b50610160830151614dd4610160860182614c3b565b50610180830151614de9610180860182614c3b565b506101a0830151614dfe6101a0860182614c3b565b508091505092915050565b6000614e158383614ccd565b905092915050565b6000602082019050919050565b6000614e3582614a49565b614e3f8185614a54565b935083602082028501614e5185614a65565b8060005b85811015614e8d5784840389528151614e6e8582614e09565b9450614e7983614e1d565b925060208a01995050600181019050614e55565b50829750879550505050505092915050565b60006020820190508181036000830152614eb98184614e2a565b905092915050565b600060208284031215614ed757614ed66140ba565b5b600082013567ffffffffffffffff811115614ef557614ef46140bf565b5b614f018482850161484b565b91505092915050565b60008060408385031215614f2157614f206140ba565b5b6000614f2f85828601614143565b9250506020614f408582860161410d565b9150509250929050565b600081519050919050565b600082825260208201905092915050565b6000819050602082019050919050565b6000614f828383614a75565b60208301905092915050565b6000602082019050919050565b6000614fa682614f4a565b614fb08185614f55565b9350614fbb83614f66565b8060005b83811015614fec578151614fd38882614f76565b9750614fde83614f8e565b925050600181019050614fbf565b5085935050505092915050565b600060208201905081810360008301526150138184614f9b565b905092915050565b6000615026826141d3565b9050919050565b6150368161501b565b82525050565b6000602082019050615051600083018461502d565b92915050565b600082825260208201905092915050565b7f416c72656164792073746172746564207461736b000000000000000000000000600082015250565b600061509e601483615057565b91506150a982615068565b602082019050919050565b600060208201905081810360008301526150cd81615091565b9050919050565b7f4e487b7100000000000000000000000000000000000000000000000000000000600052603260045260246000fd5b7f4e487b7100000000000000000000000000000000000000000000000000000000600052602160045260246000fd5b60007fffffffff0000000000000000000000000000000000000000000000000000000082169050919050565b61516781615132565b82525050565b6000602082019050615182600083018461515e565b92915050565b7f4f6e6c7920646564696361746564206d73672e73656e64657200000000000000600082015250565b60006151be601983615057565b91506151c982615188565b602082019050919050565b600060208201905081810360008301526151ed816151b1565b9050919050565b60006060820190506152096000830186614198565b6152166020830185614206565b6152236040830184614206565b949350505050565b7f4e487b7100000000000000000000000000000000000000000000000000000000600052601160045260246000fd5b600061526582614122565b91507fffffffffffffffffffffffffffffffffffffffffffffffffffffffffffffffff82036152975761529661522b565b5b600182019050919050565b7f53746172742074696d652073686f756c64206265206c657373207468616e207460008201527f686520656e642074696d65000000000000000000000000000000000000000000602082015250565b60006152fe602b83615057565b9150615309826152a2565b604082019050919050565b6000602082019050818103600083015261532d816152f1565b9050919050565b600061533f82614122565b915061534a83614122565b92508282039050818111156153625761536161522b565b5b92915050565b600061537382614122565b915061537e83614122565b92508282019050808211156153965761539561522b565b5b92915050565b7f456e6574722070726f7065722074696d657374616d7000000000000000000000600082015250565b60006153d2601683615057565b91506153dd8261539c565b602082019050919050565b60006020820190508181036000830152615401816153c5565b9050919050565b7f4f6e6c792066756e6473206f776e65722063616e20776974686472617720667560008201527f6e64730000000000000000000000000000000000000000000000000000000000602082015250565b6000615464602383615057565b915061546f82615408565b604082019050919050565b6000602082019050818103600083015261549381615457565b9050919050565b60006154a5826140c4565b9050919050565b6154b58161549a565b82525050565b60006060820190506154d060008301866154ac565b6154dd6020830185614198565b6154ea6040830184614206565b949350505050565b60006040820190506155076000830185614198565b6155146020830184614206565b9392505050565b60006040820190506155306000830185614198565b81810360208301526155428184614440565b90509392505050565b600081519050919050565b600082825260208201905092915050565b6000819050602082019050919050565b6004811061558857615587615103565b5b50565b600081905061559982615577565b919050565b60006155a98261558b565b9050919050565b6155b98161559e565b82525050565b60006155cb83836155b0565b60208301905092915050565b6000602082019050919050565b60006155ef8261554b565b6155f98185615556565b935061560483615567565b8060005b8381101561563557815161561c88826155bf565b9750615627836155d7565b925050600181019050615608565b5085935050505092915050565b600081519050919050565b600082825260208201905092915050565b6000819050602082019050919050565b600082825260208201905092915050565b600061568a826143e9565b615694818561566e565b93506156a4818560208601614405565b6156ad8161442f565b840191505092915050565b60006156c4838361567f565b905092915050565b6000602082019050919050565b60006156e482615642565b6156ee818561564d565b9350836020820285016157008561565e565b8060005b8581101561573c578484038952815161571d85826156b8565b9450615728836156cc565b925060208a01995050600181019050615704565b50829750879550505050505092915050565b6000604083016000830151848203600086015261576b82826155e4565b9150506020830151848203602086015261578582826156d9565b9150508091505092915050565b60006080820190506157a76000830187614198565b81810360208301526157b98186614440565b905081810360408301526157cd818561574e565b90506157dc6060830184614198565b95945050505050565b6157ee816144a9565b81146157f957600080fd5b50565b60008151905061580b816157e5565b92915050565b600060208284031215615827576158266140ba565b5b6000615835848285016157fc565b91505092915050565b600060a08201905061585360008301886141f7565b6158606020830187614198565b61586d6040830186614198565b61587a6060830185614222565b818103608083015261588c8184614440565b90509695505050505050565b60006158a3826141d3565b9050919050565b6158b381615898565b82525050565b60006060820190506158ce60008301866158aa565b81810360208301526158e08185614440565b905081810360408301526158f48184614440565b9050949350505050565b600080fd5b600067ffffffffffffffff82111561591e5761591d6144e2565b5b6159278261442f565b9050602081019050919050565b600061594761594284615903565b614542565b905082815260208101848484011115615963576159626158fe565b5b61596e848285614405565b509392505050565b600082601f83011261598b5761598a6145cc565b5b815161599b848260208601615934565b91505092915050565b6000602082840312156159ba576159b96140ba565b5b600082015167ffffffffffffffff8111156159d8576159d76140bf565b5b6159e484828501615976565b91505092915050565b6000608082019050615a0260008301876141f7565b615a0f6020830186614198565b615a1c6040830185614198565b8181036060830152615a2e8184614440565b905095945050505050565b6000606082019050615a4e6000830186614198565b615a5b6020830185614198565b615a686040830184614206565b949350505050565b600081519050615a7f816140f6565b92915050565b600060208284031215615a9b57615a9a6140ba565b5b6000615aa984828501615a70565b91505092915050565b6000819050919050565b60008160001b9050919050565b6000615ae4615adf615ada84615ab2565b615abc565b6144a9565b9050919050565b615af481615ac9565b82525050565b6000602082019050615b0f6000830184615aeb565b92915050565b6000615b20826140e4565b9050919050565b615b3081615b15565b8114615b3b57600080fd5b50565b600081519050615b4d81615b27565b92915050565b600060208284031215615b6957615b686140ba565b5b6000615b7784828501615b3e565b91505092915050565b7f4e487b7100000000000000000000000000000000000000000000000000000000600052600160045260246000fdfe536f6d652074696d65206973206c65667420746f207374617274207468652073747265616d536f6d652074696d65206c65667420746f20757064617465207468652073747265616da2646970667358221220db992c063fc7c53fa2576638bf975124e4878e2882e0941cf7229bde321f026464736f6c63430008120033",
  "linkReferences": {},
  "deployedLinkReferences": {}
}